:020000040800F2
:10000000000400209D010008D90300087B020008BD
:1000100029030008E50100081105000800000000A0
:10002000000000000000000000000000F9030008CC
:10003000E701000800000000DB030008B50100082C
:10004000B7010008B7010008B7010008B7010008B0
:10005000B7010008B7010008B7010008B7010008A0
:10006000B7010008B7010008B7010008B701000890
:10007000B7010008B7010008B7010008B701000880
:10008000B7010008B7010008B7010008B701000870
:10009000B7010008B7010008B7010008B701000860
:1000A000B7010008B7010008B7010008B701000850
:1000B000B7010008B7010008B7010008B701000840
:1000C000B7010008B7010008B7010008B701000830
:1000D000B7010008B7010008B7010008B701000820
:1000E000B7010008B7010008B7010008B701000810
:1000F000B7010008B7010008B7010008B701000800
:10010000B7010008B7010008B7010008B7010008EF
:10011000B7010008B7010008B7010008B7010008DF
:10012000B7010008B7010008B7010008B7010008CF
:10013000B7010008B7010008B7010008B7010008BF
:10014000B7010008B7010008B7010008B7010008AF
:10015000B7010008B7010008B7010008B70100089F
:10016000B7010008B7010008B7010008B70100088F
:10017000B7010008B7010008B7010008B70100087F
:10018000B7010008B7010008DFF80CD000F018F83C
:100190000048004731050008000400200648804759
:1001A00006480047FEE7FEE7FEE7FEE7FEE7FEE75C
:1001B000FEE7FEE7FEE7FEE7B50400088901000858
:1001C000064C074D06E0E06840F0010394E80700A4
:1001D00098471034AC42F6D3FFF7DAFF4C0500081D
:1001E0005C050008FEE770472DE9F0410022012779
:1001F0004FF0030C07FA02F50B682B40AB422CD1F1
:10020000066853000CFA03F4A64306600E79D0F892
:1002100000809E4046EA080606600E79012E01D055
:10022000022E12D18668A64386604E79D0F80880E7
:100230009E4046EA080686604668AE4346604568CA
:100240008E799640B6B235434560C568A543C56012
:10025000CC799C40C3681C43C460521C102AC9D38B
:10026000BDE8F0810246002012690A4200D0012058
:1002700070474183704701837047FEE71CB5012139
:10028000102000F0ABF84FF47040009000208DF883
:10029000040069460148FFF7A7FF1CBD001002409B
:1002A00010B5114C4FF48051204600F01FF898B162
:1002B0004FF40051204600F019F878B14FF4804116
:1002C000204600F013F858B14FF40041204600F0EA
:1002D0000DF838B1002010BD012010BD022010BD66
:1002E000032010BD042010BD0010024010B5FFF720
:1002F000B9FF08B1012010BD002010BD1CB50121BF
:10030000102000F06BF84FF47060009001208DF821
:10031000040003208DF8050069460248FFF764FFDA
:100320001CBD000000100240FEE700002DE9F04770
:100330000446284D4FF4807949462846FFF79BFF35
:100340006E1531462846FFF796FF2F153946284689
:10035000FFF791FF4FF4006841462846FFF78BFFF7
:10036000012C17D0022C1BD0032C23D0042C2FD10E
:1003700049462846FFF77DFF31462846FFF779FFBB
:1003800039462846FFF775FF41462846BDE8F04745
:10039000FFF76FBF49462846BDE8F047FFF769BF42
:1003A00049462846FFF765FF31462846BDE8F04735
:1003B000FFF75FBF49462846FFF75BFF31462846F7
:1003C000FFF757FF39462846BDE8F047FFF751BF12
:1003D000BDE8F0870010024070477047054A0029C9
:1003E00003D01168014311607047116881431160A7
:1003F0007047000030380240704700000CB5002202
:10040000019200922749086840F4803008604FF458
:10041000A043086800F4003000900198401C01904F
:10042000009810B901989842F3D10868800302D56A
:100430000120009000E000920098012831D1194875
:100440004030026842F0805202601748026842F46D
:10045000404202601348083002680260026842F4B9
:1004600000420260026842F4A0520260021F0F4B79
:1004700013600A6842F080720A600A689201FCD533
:100480000B4A40F205711160016821F0030101601F
:10049000016841F0020101600168C1F38101022994
:1004A000FAD10CBD003802400070004019544007DA
:1004B000003C024010B51248016841F4700101602F
:1004C0001048016841F0010101600E4A0021083224
:1004D000116002680C4B1A400260031D0B4A1A603F
:1004E000026822F48022026006480C300160FFF7A7
:1004F00085FF03494FF000608039086010BD00009F
:1005000088ED00E000380240FFFFF6FE10300024C6
:10051000FEE702E008C8121F08C1002AFAD170479E
:100520007047002001E001C1121F002AFBD1704773
:10053000FFF7E4FEFFF7A2FE0020FFF7F7FEFFF74C
:10054000AFFE0028FBD0FFF7F1FEF8E75C050008DE
:0C0550000000002000040000220500084C
:040000050800018965
:00000001FF
