:020000040800F2
:10000000180400209D01000817030008930200084F
:1000100015030008E5010008130C000800000000AB
:100020000000000000000000000000000D050008B6
:10003000E701000800000000DB030008C905000814
:10004000B7010008B7010008B7010008B7010008B0
:10005000B7010008B7010008B7010008B7010008A0
:10006000B7010008B7010008B7010008B701000890
:10007000B7010008B7010008B7010008B701000880
:10008000B7010008B7010008B7010008B701000870
:10009000B7010008B7010008B7010008B701000860
:1000A000B7010008B7010008B7010008B701000850
:1000B000B7010008B7010008B7010008B701000840
:1000C000B7010008B7010008B7010008B701000830
:1000D000B701000841080008B7010008B70100088F
:1000E000B7010008B7010008B7010008B701000810
:1000F000B7010008B7010008B7010008B701000800
:10010000B7010008B7010008A1060008B701000800
:10011000B7010008B7010008B7010008B7010008DF
:10012000B7010008B7010008B7010008B7010008CF
:10013000B7010008B7010008B7010008B7010008BF
:10014000B7010008B7010008B7010008B7010008AF
:10015000B7010008B7010008B7010008B70100089F
:10016000B7010008B7010008B7010008B70100088F
:10017000B7010008B7010008B7010008B70100087F
:10018000B7010008B7010008DFF80CD000F018F83C
:1001900000480047350C0008180400200648804736
:1001A00006480047FEE7FEE7FEE7FEE7FEE7FEE75C
:1001B000FEE7FEE7FEE7FEE7CD050008890100083F
:1001C000064C074D06E0E06840F0010394E80700A4
:1001D00098471034AC42F6D3FFF7DAFF640C0008FE
:1001E000840C0008FEE770472DE9F041002201274A
:1001F0004FF0030C07FA02F50B682B40AB422CD1F1
:10020000066853000CFA03F4A64306600E79D0F892
:1002100000809E4046EA080606600E79012E01D055
:10022000022E12D18668A64386604E79D0F80880E7
:100230009E4046EA080686604668AE4346604568CA
:100240008E799640B6B235434560C568A543C56012
:10025000CC799C40C3681C43C460521C102AC9D38B
:10026000BDE8F08110B54B07DB0E9A40C90800EBE2
:100270008100016A0F249C40A1430162016A11437D
:10028000016210BD0246002012690A4200D001201E
:100290007047FEE71CB50121102000F09FF84FF4D5
:1002A0007040009000208DF8040069460148FFF777
:1002B0009BFF1CBD0010024010B5114C4FF4805143
:1002C000204600F01FF898B14FF40051204600F08E
:1002D00019F878B14FF48041204600F013F858B176
:1002E0004FF40041204600F00DF838B1002010BD59
:1002F000012010BD022010BD032010BD042010BD40
:100300000010024010B5FFF7BDFF08B1012010BD7D
:10031000002010BDFEE7704708B54FF4C06000F044
:1003200043F800208DF801008DF8020025208DF89B
:10033000000001208DF80300684600F001F808BDB8
:1003400030B50F23C27801250178002A1FD0154A45
:10035000126802F4E062C2F5E062C2F30722C2F161
:100360000404D3404278A24084781C401443220104
:1003700001F1E02181F80024007800F01F018D4098
:100380004009800000F1E020C0F8005130BD01F0CC
:100390001F0085404809800000F1E020C0F880512E
:1003A00030BD00000CED00E002490843024908603E
:1003B000704700000000FA050CED00E008B532209F
:1003C0008DF8000001208DF801008DF802008DF8F5
:1003D00003006846FFF7B4FF08BD7047054A0029CF
:1003E00003D01168014311607047116881431160A7
:1003F0007047000030380240054A002903D01168D8
:10040000014311607047116881431160704700001B
:1004100040380240054A002903D0116801431160A9
:100420007047116881431160704700002038024016
:10043000054A002903D01168014311607047116813
:10044000814311607047000044380240054A00298A
:1004500003D0116801431160704711688143116036
:10046000704700002438024070B5244B196801F031
:100470000C01234C00291ED0224E04291DD008292E
:100480001DD00460196801F0F00109091E4A545C8E
:100490000168E14041601C6804F4E054A40A145D62
:1004A00021FA04F484601B6803F460435B0BD25CA4
:1004B000D140C16070BD0460E4E70660E2E70F4A26
:1004C000121F1168C1F38055116801F03F0135B169
:1004D000B6FBF1F11468C4F38814614305E0B4FB82
:1004E000F1F11468C4F3881461431268C2F3014245
:1004F000521C5200B1FBF2F10160C3E70838024020
:100500000024F40040787D010200002070470000C4
:100510000CB50022019200922749086840F480300F
:1005200008604FF4A043086800F400300090019880
:10053000401C0190009810B901989842F3D10868C6
:10054000800302D50120009000E00092009801286D
:1005500031D119484030026842F080520260174899
:10056000026842F4404202601348083002680260A8
:10057000026842F400420260026842F4A052026043
:10058000021F0F4B13600A6842F080720A600A680B
:100590009201FCD50B4A40F205711160016821F00F
:1005A00003010160016841F0020101600168C1F3CB
:1005B00081010229FAD10CBD0038024000700040D0
:1005C00019544007003C02407047000010B5124823
:1005D000016841F4700101601048016841F00101B7
:1005E00001600E4A00210832116002680C4B1A406B
:1005F0000260031D0B4A1A60026822F48022026026
:1006000006480C300160FFF783FF03494FF000609C
:100610008039086010BD000088ED00E0003802401D
:10062000FFFFF6FE1030002430B589B0012108200C
:10063000FFF7E2FE0024ADF81A4040F28F60ADF8FB
:100640001800ADF8204046F2A7100790134D06A9F8
:10065000284600F0B7F86021ADF804100121ADF88C
:10066000061043F2D3010391ADF8104001A92846CA
:1006700000F060F80021284600F09EF80821284686
:1006800000F030F801220821284600F049F8012145
:10069000284600F02DF809B030BD0000000C0040E5
:1006A00010B50D4C0821204600F02EF800280AD085
:1006B0000821204600F019F8084C6078012803D082
:1006C000002800D1207010BD2178054800F092FA72
:1006D0002078401C207010BD000C0040000000205D
:1006E00000100140C94301827047C943018270472D
:1006F000002904D0018841F0010101807047018880
:1007000021F001010180704702460020138A0B404E
:1007100092890A40002B02D0002A00D001207047A5
:10072000002A03D082890A438281704782898A43E2
:100730008281704770B5028C22F480720284028C30
:100740008388848B24F0700424F003040D882543EF
:1007500022F400728E894FF6FF7404EA06261643CF
:100760004A8804EA02223243114EB04202D0114EAE
:10077000B04217D122F40066CA8904EA0222324349
:1007800022F480668A8804EA0222324323F48053EA
:1007900023F400530E8A04EA06161E434B8A04EA29
:1007A00003133343838085838968C163028470BDEA
:1007B0000000014000040140828B22F008020A433D
:1007C0008283704730B50288164C174DA0420DD079
:1007D000A8420BD0B0F1804F08D0144B984205D0FE
:1007E000134B984202D0134B984203D122F070036E
:1007F0004A881A43104B984206D0104B984203D0B7
:1008000022F440730A891A4302804A68C2620A8845
:100810000285A04201D0A84201D1897A0186012136
:10082000818230BD0000014000040140000400400E
:1008300000080040000C0040001000400014004080
:1008400070B50B4C40F225552946204600F00CF9B6
:1008500000280BD02946204600F00EF8204600F074
:10086000C5F9AA2802D103490020487070BD0000D4
:10087000001001400000002040F66A120A0A01211F
:100880009140C9430180704710B5028A22F4706319
:100890000A884C8822438C88C9880C4322431A4317
:1008A000028210BD0021018041808180C18070479B
:1008B000002904D0818941F40051818170478189E8
:1008C00021F400518181704730B587B0012110209B
:1008D000FFF7AEFD01210846FFF780FD214C2046C1
:1008E00000F042F803A800F089F901A8FFF7DAFF49
:1008F00000F0DAF801A92046FFF7C6FF4FF4E13116
:1009000003910021ADF81010ADF81210ADF81410DD
:10091000ADF818100C21ADF8161003A9204600F010
:1009200007F940F2255501222946204600F0E4F857
:10093000002240F22441204600F0DEF840F2266119
:100940002046FFF799FF29462046FFF795FF40F222
:1009500027712046FFF790FF01212046FFF7A8FFEF
:1009600007B030BD0010014010B53749884209D1A9
:1009700001211020FFF76AFD0021BDE81040102082
:10098000FFF764BD314988420AD101214C04204659
:10099000FFF740FD2046BDE810400021FFF73ABDBB
:1009A0002B4988420AD101218C042046FFF732FDF1
:1009B0002046BDE810400021FFF72CBD25498842A4
:1009C0000AD10121CC042046FFF724FD2046BDE8D2
:1009D00010400021FFF71EBD1F4988420AD10121A6
:1009E0000C052046FFF716FD2046BDE8104000210B
:1009F000FFF710BD1949884209D101212020FFF7D6
:100A000025FD0021BDE810402020FFF71FBD14493F
:100A100088420AD101218C072046FFF7FBFC2046C3
:100A2000BDE810400021FFF7F5BC0E4988420AD10D
:100A3000440501212046FFF7EDFC2046BDE81040AB
:100A40000021FFF7E7BC10BD00100140004400404A
:100A500000480040004C004000500040001401409D
:100A600000780040007C004070B5002440F66A1217
:100A7000C1F3421301F01F05012606FA05F2012B0E
:100A80000CD0022B0DD0838A1340090A8E400088B7
:100A900030400BB100B10124204670BD8389134062
:100AA000F3E7038A1340F0E71CB54FF400700090A1
:100AB00002208DF805008DF8040000208DF8060056
:100AC00001208DF807000B4C69462046FFF78CFB90
:100AD000072209212046FFF7C5FB21150091694631
:100AE0002046FFF781FB07220A212046FFF7BAFBC9
:100AF0001CBD00000000024010B540F66A13C1F3AF
:100B0000421301F01F040121A140012B07D0022B49
:100B100007D014303AB102680A43026010BD0C30AD
:100B2000F8E71030F6E702688A43026010BD000063
:100B30007FB504460D46208A20F44051E8880843DA
:100B40002082A08941F20C618843A9882A89114337
:100B50006A8902431143A181A08A20F44071A889C7
:100B60000843A0826846FFF77FFC1E48844202D0FB
:100B70001D48844201D1039800E00298A18909042C
:100B800008D500EBC00101EB001029684900B0FB5B
:100B9000F1F007E000EBC00101EB001029688900CB
:100BA000B0FBF1F06422B0FBF2F109010B096FF028
:100BB00018056B4300EB8300A3891D044FF032033B
:100BC00007D503EBC000B0FBF2F000F007000843CC
:100BD00006E003EB0010B0FBF2F000F00F0008435A
:100BE00020817FBD00100140001401408088C0F3C7
:100BF00008007047C1F30801818070474FF4165117
:100C0000016000218180C18001810C2242818181AB
:100C10007047FEE702E008C8121F08C1002AFAD197
:100C200070477047002001E001C1121F002AFBD16C
:100C300070470000FFF770FBFFF746FEFFF72AFB47
:100C4000FFF7BCFBFFF7F0FC0125054CFFF734FB79
:100C50000128FBD160780028F8D16570F6E7000024
:100C600000000020840C0008000000201400000098
:100C7000140C0008980C0008140000200404000064
:100C8000240C00080000000000000102030401021F
:080C9000030406070809000037
:040000050800018965
:00000001FF
