:020000040800F2
:10000000701000209D0100086B0600089B0300088B
:10001000690600083B020008831200080000000087
:10002000000000000000000000000000190A0008A5
:10003000E502000800000000A9080008B50100085A
:10004000B7010008B7010008B7010008B7010008B0
:10005000B7010008B7010008B7010008B7010008A0
:10006000B7010008B7010008B7010008B701000890
:10007000B7010008B7010008B7010008B701000880
:10008000B7010008B7010008B7010008B701000870
:10009000B7010008B7010008B7010008B701000860
:1000A000B7010008B7010008B7010008B701000850
:1000B000B7010008C10B0008B7010008B70100082C
:1000C000B7010008B7010008B7010008B701000830
:1000D000B7010008390E0008B7010008B701000891
:1000E000B7010008B7010008B7010008B701000810
:1000F000B7010008B7010008B7010008B701000800
:10010000B7010008B7010008B7010008B7010008EF
:10011000B7010008B7010008B7010008B7010008DF
:10012000B7010008B7010008B7010008B7010008CF
:10013000B7010008B7010008B7010008B7010008BF
:10014000B7010008B7010008B7010008B7010008AF
:10015000B7010008B7010008B7010008B70100089F
:10016000B7010008B7010008B7010008B70100088F
:10017000B7010008B7010008B7010008B70100087F
:10018000B7010008B7010008DFF80CD000F018F83C
:1001900000480047B512000870100020064880474C
:1001A00006480047FEE7FEE7FEE7FEE7FEE7FEE75C
:1001B000FEE7FEE7FEE7FEE7650B000889010008A1
:1001C000064C074D06E0E06840F0010394E80700A4
:1001D00098471034AC42F6D3FFF7DAFF2413000837
:1001E0004413000870B58C1810F8015B15F0070374
:1001F00001D110F8013B2A1106D110F8012B03E0C0
:1002000010F8016B01F8016B5B1EF9D12B0705D4C7
:100210000023521E0DD401F8013BFAE710F8013B10
:10022000CB1A921C03E013F8015B01F8015B521E2C
:10023000F9D5A142D8D3002070BDFEE7104A50780E
:1002400091780844D17808441179084451790144DF
:10025000002005E013189B79194489B2401CC0B2F4
:1002600053798342F6D826325078127800EB022078
:1002700080B2884202D103490120487070470000D3
:10028000200C002004000020F0B5134B0025134A79
:10029000D878002806D0012806D0812801D1012075
:1002A0001070F0BD5580F0BD00200D4E4FF48067FA
:1002B0005C790DE0191891F806C0518806F801C064
:1002C000491C89B25180B94200D35580401CC0B24C
:1002D0008442EFD8F0BD0000200C00200000002078
:1002E000200400207047002808D044F62062114600
:1002F000491E0029FCD1401E0028F8D170472DE985
:10030000F041002201274FF0030C07FA02F50B68B9
:100310002B40AB422CD1066853000CFA03F4A643E1
:1003200006600E79D0F800809E4046EA0806066016
:100330000E79012E01D0022E12D18668A643866066
:100340004E79D0F808809E4046EA080686604668E6
:10035000AE43466045688E799640B6B235434560F7
:10036000C568A543C560CC799C40C3681C43C46084
:10037000521C102AC9D3BDE8F08110B54B07DB0E23
:100380009A40C90800EB8100016A0F249C40A143F8
:100390000162016A1143016210BDFEE703460020BD
:1003A0009A8A1B8B1B041A4322F07F42914300D18F
:1003B00001207047002904D0018841F0010101802B
:1003C0007047018821F001010180704710B586B0A7
:1003D0000121202000F06AFA1D4C04220021204651
:1003E000FFF7CBFF042201212046FFF7C6FF0321C0
:1003F00000918DF8051002218DF8041001218DF86F
:1004000006108DF8071069462046FFF778FF012196
:10041000880500F059FA0020ADF80C004BF6FF708B
:10042000ADF80E000A20ADF810002015ADF812004E
:100430000001ADF8140007480290074C02A92046BD
:1004400000F03EF801212046FFF7B4FF06B010BDD2
:100450000014024040420F0000580040002904D020
:10046000018841F4807101807047018821F4807116
:1004700001807047002904D0018841F40071018097
:100480007047018821F40071018070470CB5024665
:10049000002000920A0F019221F07F41019A002A68
:1004A00003D0009A1432009203E0090C009A18322B
:1004B0000092009A12680A4200D001200CBD000090
:1004C0007FB504460D46A08820F03F06684600F040
:1004D00033FA02982749B0FBF1F189B20E43A680A6
:1004E000228822F001022280234B2A689A4209D8EE
:1004F0005200B0FBF2F080B2042800D20420491C64
:10050000218423E0EB88A3F53F46FF3E0BD002EBAE
:10051000C20303EB0212B0FBF2F080B240F4804061
:10052000020506D007E002EB4202B0FBF2F080B217
:10053000F6E740F0010040F400404FF4967251435A
:100540004FF47A72B1FBF2F1491C2184A083208818
:1005500040F00100208020884FF6F5310840A9883E
:100560006A89114301432180A88929890843208190
:100570007FBD000040420F00A0860100002A02D08B
:1005800041F0010101E001F0FE01018270470182AA
:10059000704700002DE9F04104460E461D4D4FF412
:1005A000003739462846FFF771FF0028F9D10121AD
:1005B0002846FFF753FF184F28463946FFF7EEFE4F
:1005C0000028F9D0002278212846FFF7D7FF134FE3
:1005D00028463946FFF7E2FE0028F9D02146284692
:1005E000FFF7D5FF0D4CA41C21462846FFF7D6FE89
:1005F0000028F9D031462846FFF7C9FF2146284692
:10060000FFF7CCFE0028F9D02846BDE8F0410121D3
:10061000FFF730BF005800400100030082000700D0
:100620003EB50121022000F04FF90E4C204600F0AB
:10063000E5FA5321ADF8001042F21071019100214A
:10064000ADF80810ADF802106946204600F0B6FB80
:100650000121204600F0C0FA01221146204600F098
:10066000A3FB3EBD00040040FEE7704738B5002103
:100670004FF0006000F062F84FF4407000F054F862
:1006800025208DF8000000248DF801408DF80240EF
:1006900001258DF80350684600F012F84FF4A06071
:1006A00000F042F81D208DF800008DF801508DF803
:1006B00002408DF80350684600F002F838BD000093
:1006C00030B50F23C27801250178002A1FD0154AC2
:1006D000126802F4E062C2F5E062C2F30722C2F1DE
:1006E0000404D3404278A24084781C401443220181
:1006F00001F1E02181F80024007800F01F018D4015
:100700004009800000F1E020C0F8005130BD01F048
:100710001F0085404809800000F1E020C0F88051AA
:1007200030BD00000CED00E00249084302490860BA
:10073000704700000000FA050CED00E0024A11408D
:10074000014302480160704780FFFF1F08ED00E091
:10075000002000F021B82DE9F0478246DDF8209016
:100760000E4690461F460025780711E03146504658
:1007700000F087F8544607E028466D1C19F8000081
:1007800000F084FD641CE4B24445F5D3761CF6B257
:10079000BE42EBD3BDE8F08770B50646002505F1F3
:1007A000B000C0B200F06EFD002000F06BFD102024
:1007B00000F068FD0024304600F068FD641CE4B2DF
:1007C000802CF8D36D1CEDB2082DE8D370BD10B5A8
:1007D0006420FFF788FDAE2000F054FD202000F0DB
:1007E00051FD102000F04EFDB02000F04BFDC82060
:1007F00000F048FD002000F045FD102000F042FD13
:10080000402000F03FFD812000F03CFDFF2000F083
:1008100039FDA12000F036FDA62000F033FDA82010
:1008200000F030FD3F2000F02DFDA42000F02AFD57
:10083000D32000F027FD002000F024FDD52000F09B
:1008400021FDF02000F01EFDD92000F01BFD22202C
:1008500000F018FDDA2000F015FD122000F012FD66
:10086000DB2000F00FFD202000F00CFD8D2000F0BB
:1008700009FD142000F006FDBDE81040AF2000F097
:1008800001BD10B50446B031C8B200F0FBFC102029
:1008900040EA141000F0F6FC04F00F00BDE8104030
:1008A00040F0010000F0EEBC70470000054A00294E
:1008B00003D01168014311607047116881431160D2
:1008C0007047000030380240054A002903D0116803
:1008D0000143116070471168814311607047000047
:1008E00040380240054A002903D0116801431160D5
:1008F0007047116881431160704700002038024042
:10090000054A002903D0116801431160704711683E
:10091000814311607047000044380240054A0029B5
:1009200003D0116801431160704711688143116061
:10093000704700002438024070B5244B196801F05C
:100940000C01234C00291ED0224E04291DD0082959
:100950001DD00460196801F0F00109091E4A545CB9
:100960000168E14041601C6804F4E054A40A145D8D
:1009700021FA04F484601B6803F460435B0BD25CCF
:10098000D140C16070BD0460E4E70660E2E70F4A51
:10099000121F1168C1F38055116801F03F0135B194
:1009A000B6FBF1F11468C4F38814614305E0B4FBAD
:1009B000F1F11468C4F3881461431268C2F3014270
:1009C000521C5200B1FBF2F10160C3E7083802404B
:1009D0000024F40040787D010E04002010B50022B0
:1009E000064B08E01C886406FCD5845C9C801C884F
:1009F0006406FCD5521C8A42F4D310BD001001409D
:100A000010B50121034800F0EDF80249002024311F
:100A1000086010BD0004004070470000F0B4164F9D
:100A20007E203870154D68787870A978B9700144C7
:100A3000E878F870014428793871421869790620FD
:100A400079718B18002209E0AC180646A479401C85
:100A5000C0B2BC5523449BB2521CD2B29142F3D8CF
:100A60001C0A421CD2B23C54BB54054808310180D8
:100A7000F0BC0148FFF7B2BF20080020480C00205E
:100A80000C00002007487E21017007498A784270D7
:100A90004A788270CA78C270097901710121417166
:100AA00081717047480C0020200C00200CB50022FA
:100AB000019200922749086840F4803008604FF4A2
:100AC000A043086800F4003000900198401C019099
:100AD000009810B901989842F3D10868800302D5B4
:100AE0000120009000E000920098012831D11948BF
:100AF0004030026842F0805202601748026842F4B7
:100B0000404202601348083002680260026842F402
:100B100000420260026842F4A0520260021F0F4BC2
:100B200013600A6842F080720A600A689201FCD57C
:100B30000B4A40F205711160016821F00301016068
:100B4000016841F0020101600168C1F381010229DD
:100B5000FAD10CBD00380240007000401954400723
:100B6000003C024010B51248016841F47001016078
:100B70001048016841F0010101600E4A002108326D
:100B8000116002680C4B1A400260031D0B4A1A6088
:100B9000026822F48022026006480C300160FFF7F0
:100BA00085FF03494FF000608039086010BD0000E8
:100BB00088ED00E000380240FFFFF6FE1030002410
:100BC0000349002008700121024800F008B8000025
:100BD0000400002000040040C94301827047C9435B
:100BE00001827047002904D0018841F00101018091
:100BF0007047018821F001010180704710B55D49FF
:100C0000884209D101210846FFF788FE0021BDE88E
:100C100010400120FFF782BEB0F1804F0CD0564942
:100C2000884213D101210220FFF75CFE0021BDE8BC
:100C300010400220FFF756BE01210846FFF752FE82
:100C40000021BDE810400120FFF74CBE4B4988420F
:100C500009D101210420FFF745FE0021BDE8104025
:100C60000420FFF73FBE4649884209D101210820F0
:100C7000FFF738FE0021BDE810400820FFF732BE24
:100C80004049884209D101211020FFF72BFE0021A5
:100C9000BDE810401020FFF725BE3B49884209D12E
:100CA00001212020FFF71EFE0021BDE8104020207A
:100CB000FFF718BE3549884209D101210220FFF70C
:100CC0002DFE0021BDE810400220FFF727BE30496D
:100CD00088420AD101210C042046FFF71FFE20465E
:100CE000BDE810400021FFF719BE2A4988420AD109
:100CF00001214C042046FFF711FE2046BDE81040BC
:100D00000021FFF70BBE244988420AD101218C043F
:100D10002046FFF703FE2046BDE810400021FFF704
:100D2000FDBD1E49884209D101214020FFF7DAFDAF
:100D30000021BDE810404020FFF7D4BD184988428B
:100D400009D101218020FFF7CDFD0021BDE8104031
:100D50008020FFF7C7BD134988420AD184150121BD
:100D60002046FFF7BFFD2046BDE810400021FFF7F9
:100D7000B9BD10BD00000140000400400008004063
:100D8000000C00400010004000140040000401402E
:100D9000004001400044014000480140001800406C
:100DA000001C004000200040002A03D082890A4332
:100DB0008281704782898A438281704730B5028878
:100DC000164C174DA0420DD0A8420BD0B0F1804F69
:100DD00008D0144B984205D0134B984202D0134BC5
:100DE000984203D122F070034A881A43104B98426C
:100DF00006D0104B984203D022F440730A891A435C
:100E000002804A68C2620A880285A04201D0A842D4
:100E100001D1897A01860121818230BD0000014023
:100E2000000401400004004000080040000C0040A5
:100E3000001000400014004070B5FFF7E1FD334D95
:100E400040F22551284600F077F9F8B12888A888A3
:100E5000C1B22F4B1A782F4C052A27D006DC052A61
:100E600044D2DFE802F00A0F14191E00062A22D02D
:100E7000072A2ED0082A39D131E021701878401C79
:100E8000187033E061701878401C18702EE0A17063
:100E90001878401C187029E0E1701878401C187010
:100EA00024E021711878401C18701FE061711878D7
:100EB000401C18701AE05868204481715868401C22
:100EC000586060795968884210D81878401C1870AA
:100ED0000CE084F826101878401C187006E084F89E
:100EE00027101878401C1870FFF7A8F940F2266404
:100EF0002146284600F020F9002805D02146284642
:100F0000BDE8704000F070B870BD000000100140F6
:100F100004000020200C002070B588B001210920B9
:100F2000FFF7C4FC01211020FFF7EAFC2C4D2846F6
:100F300000F082F802A800F099F9684600F06AF81B
:100F400002218DF81C108DF81D1000248DF81E4014
:100F500001208DF81F0040020690224E06A930465F
:100F6000FFF7CDF9072209213046FFF706FA2815C9
:100F7000069006A93046FFF7C2F907220A2130463B
:100F8000FFF7FBF96946284600F036F84FF4964023
:100F90000290ADF80C40ADF80E40ADF81040ADF841
:100FA00014400C20ADF8120002A9284600F000F908
:100FB000012240F22551284600F0DEF8002240F2DE
:100FC0002441284600F0D8F80121284600F028F8EE
:100FD00040F22661284600F007F808B070BD000016
:100FE000001001400000024040F66A120A0A012186
:100FF0009140C9430180704710B5028A22F47063A2
:101000000A884C8822438C88C9880C4322431A439F
:10101000028210BD0021018041808180C180704723
:10102000002904D0818941F4005181817047818970
:1010300021F400518181704710B53749884209D1A8
:1010400001211020FFF76AFC0021BDE810401020AC
:10105000FFF764BC314988420AD101214C04204683
:10106000FFF740FC2046BDE810400021FFF73ABCE6
:101070002B4988420AD101218C042046FFF732FC1B
:101080002046BDE810400021FFF72CBC25498842CE
:101090000AD10121CC042046FFF724FC2046BDE8FC
:1010A00010400021FFF71EBC1F4988420AD10121D0
:1010B0000C052046FFF716FC2046BDE81040002135
:1010C000FFF710BC1949884209D101212020FFF700
:1010D00025FC0021BDE810402020FFF71FBC14496B
:1010E00088420AD101218C072046FFF7FBFB2046EE
:1010F000BDE810400021FFF7F5BB0E4988420AD138
:10110000440501212046FFF7EDFB2046BDE81040D5
:101110000021FFF7E7BB10BD001001400044004074
:1011200000480040004C00400050004000140140C6
:1011300000780040007C004070B5002440F66A1240
:10114000C1F3421301F01F05012606FA05F2012B37
:101150000CD0022B0DD0838A1340090A8E400088E0
:1011600030400BB100B10124204670BD838913408B
:10117000F3E7038A1340F0E710B540F66A13C1F3B2
:10118000421301F01F040121A140012B07D0022BC3
:1011900007D014303AB102680A43026010BD0C3027
:1011A000F8E71030F6E702688A43026010BD0000DD
:1011B0007FB504460D46208A20F44051E888084354
:1011C0002082A08941F20C618843A9882A891143B1
:1011D0006A8902431143A181A08A20F44071A88941
:1011E0000843A0826846FFF7A7FB1E48844202D04E
:1011F0001D48844201D1039800E00298A1890904A6
:1012000008D500EBC00101EB001029684900B0FBD4
:10121000F1F007E000EBC00101EB00102968890044
:10122000B0FBF1F06422B0FBF2F109010B096FF0A1
:1012300018056B4300EB8300A3891D044FF03203B4
:1012400007D503EBC000B0FBF2F000F00700084345
:1012500006E003EB0010B0FBF2F000F00F000843D3
:1012600020817FBD00100140001401404FF4165151
:10127000016000218180C18001810C224281818135
:101280007047FEE701460020FFF784B90146402081
:10129000FFF780B902E008C8121F08C1002AFAD17E
:1012A00070477047002001E001C1121F002AFBD1E6
:1012B0007047000008B5FFF72FFEFFF7B1F9FFF701
:1012C000D5F9FFF783F8FFF782FA0A20FFF70BF84A
:1012D000FFF73EFA0F4800210090082380220846BD
:1012E000FFF739FA0C4C0D4D0D4E2078012805D131
:1012F000FEF7CAFFFFF7C6FBFFF790FB287801282F
:10130000F3D100210823802208460096FFF723FA34
:10131000EBE700000E000020050000200000002088
:1013200020040020441300080000002020040000D6
:10133000E40100086414000820040020500C0000A0
:10134000A4120008F1100A03050911FF118905C351
:1013500012E012F072F8073D4428FF11AA44700B06
:10136000830138448292927401831E7C44C7017DBC
:1013700001990562FF9A0102818A010B01366941D8
:101380009949FA0101A12A4001212A6D01212A600F
:1013900001791501642ADB010915072ADA01212ADE
:1013A000D801212AC0010915072A800101352A0622
:1013B000010918071CE66620076A86157A861C2A2A
:1013C0008601180A80808686068686C0C00C0E1CA0
:1013D0000606D030764D2907013113601C12FE132A
:1013E00001021009C41820029E63B20E1DFF818104
:1013F000FFF24440300F12FF180923EAAABFAAEAFD
:10140000033F0B012DBC808080080115240E0C08C1
:101410002A01013149041D81808081021901B91717
:1014200006110101090C0E0A14C0012178081E21C1
:10143000404050215E08012A4DFFFFC1C10409232D
:101440002D481580FCF3EFF3FC80FF80EEEEEEF507
:10145000FBFF9CBEB6B6883A2D01020304042506A4
:041460000708090070
:040000050800018965
:00000001FF
