:020000040800F2
:10000000108100209D010008E1120008250F000862
:10001000AD12000849020008151A0008000000008F
:10002000000000000000000000000000851700082C
:10003000D503000800000000191600086D1900081B
:10004000B7010008B7010008B7010008B7010008B0
:10005000B7010008B7010008B7010008B7010008A0
:10006000B7010008B7010008B7010008B701000890
:10007000B7010008B7010008B7010008B701000880
:10008000B7010008B7010008B7010008B701000870
:10009000B7010008B7010008B7010008B701000860
:1000A000B7010008B7010008B7010008B701000850
:1000B000B7010008B7010008B7010008B701000840
:1000C000B7010008B7010008B7010008B701000830
:1000D000B7010008B7010008B7010008B701000820
:1000E0004D0E0008B7010008B7010008B70100086D
:1000F000B7010008B7010008B7010008B701000800
:10010000B7010008B7010008B7010008B7010008EF
:10011000B7010008B7010008B7010008B7010008DF
:10012000B7010008B7010008B7010008B7010008CF
:10013000B7010008AD070008B7010008B7010008C3
:10014000B7010008B7010008B7010008B7010008AF
:10015000B7010008B7010008B7010008B70100089F
:10016000B7010008B7010008B7010008B70100088F
:10017000B7010008B7010008B7010008B70100087F
:10018000B7010008B7010008DFF80CD000F04AF80A
:1001900000480047CD350008108100200648804700
:1001A00006480047FEE7FEE7FEE7FEE7FEE7FEE75C
:1001B000FEE7FEE7FEE7FEE7751900088901000883
:1001C00040EA01039B0703D009E008C9121F08C0D9
:1001D000042AFAD203E011F8013B00F8013B521E59
:1001E000F9D27047D2B201E000F8012B491EFBD2D0
:1001F00070470022F6E710B513460A460446194632
:10020000FFF7F0FF204610BD30B50446002003463E
:1002100000E05B1C934203D2E05CCD5C401BF8D055
:1002200030BD0000064C074D06E0E06840F00103D9
:1002300094E8070098471034AC42F6D3FFF7A8FFC4
:10024000C0730008E073000800BFFEE730B5044645
:1002500020781949087060784870A0788870E07834
:10026000C8702079087160794871062506E0625DE2
:10027000A81F1149891D0A54681C85B26079801D28
:10028000A842F4DC6079801D205C0B4981F82600CF
:100290006079C01D205C81F8270000F011F8064845
:1002A00000787E2806D104484079202802DC01200D
:1002B0000249087030BD00002D0500201B00002001
:1002C0000020174A52781044154A92781044144A74
:1002D000D2781044124A12791044114A52791044CB
:1002E000002106E00E4A921D525C024490B24A1C64
:1002F000D1B20B4A52798A42F4DC094A92F827308B
:1003000092F8262003EB022292B2824203D101220C
:10031000044B1A7002E00022024B1A707047000072
:100320002D0500201A00002000B52448C07820B117
:10033000012815D081283DD136E02048C179807947
:1003400001EB00201E4908801C4800791D490870F7
:1003500000201D4908801D49087001F079FA2AE043
:100360001648007917490978401A00F00F00012853
:1003700013D100220DE01148801D805C1449124BFE
:100380001B88C85410480088401C0F490880501C26
:10039000C2B20A4840799042EDDC01F059FA0748B0
:1003A00000790849087006E001200849087001F04A
:1003B0004FFA00E000BF00BF00BD00002D05002087
:1003C0001E0000201D000020200000201C00002036
:1003D00024010020704706E044F6206100E0491E39
:1003E0000029FCD1401E0028F6D170471FB500F04F
:1003F00045F900F0C5FB00F059FB684601F04EF9E5
:1004000064210098B0FBF1F4601EB0F1807F00D34E
:100410000FE0601E4FF0E02148610F214FF0FF30E8
:1004200000F0A6FF00204FF0E0218861072008615E
:1004300000BF0121881E00F09BFF1FBD2F480068F0
:10044000006800F0004098B92C480068006800F48B
:10045000807068B1294800682949096848602848BF
:1004600000688068401C2649096888600120704740
:1004700022480068006800F00040F0B91F4800689A
:10048000006800F40070C0B11C480068006800F407
:10049000807090B9194800681949096808600020FF
:1004A00017490968486001201549096888601348A0
:1004B0000068C068114908601DE0104800680068C5
:1004C00000F00040B8B90D480068006800F4007002
:1004D00088B90A480068006800F4807058B9084874
:1004E00000688068401C0649096888600348006805
:1004F000C068024908600020B9E70000E000002061
:10050000E40000200149486170470000009002406B
:1005100029B1064AD2690243044BDA6104E0034A76
:10052000D2698243014BDA617047000000900240BB
:1005300030B10749896941F00201054A916105E03E
:100540000349896921F00201014A91617047000065
:100550000090024070B50C4613460021124D2860F1
:1005600000BF18E000EB41124FF00045156044F267
:10057000F4555560C1EBC11505EB450504EB850548
:1005800095605D1E8D4204D900EB41152035D56084
:1005900000E0D060491C9942E4D3044DE860044D6A
:1005A000044E356070BD0000E00000200090024065
:1005B000007D0020E400002030B10749896941F442
:1005C0000051054A916105E00349896921F4005110
:1005D000014A9161704700000090024030B50C461E
:1005E000134600210F4D286000BF15E000EB4112BB
:1005F0004FF480151560C1EBC11505EB450504EB03
:10060000850595605D1E8D4204D900EB41152035AE
:10061000D56000E0D060491C9942E7D3024D2861C3
:1006200030BD0000DC0000200090024002680A4358
:100630000260704710B50121480600F0FFFF00215D
:100640004FF0007000F0FAFF10BD01B581B000203E
:1006500000900198009002E00098401E00900098E1
:100660000028F9D10CBD00000348806940F48010D7
:100670000149886170470000009002401CB50121CB
:100680004D2000F0CBFF0121880300F0F7FF01208F
:1006900001F07AF803208DF8050002208DF804009F
:1006A00000208DF806008DF807008620009069462E
:1006B0001E4800F0CCFB0B2201211C4800F00FFC6F
:1006C0000B220221194800F00AFC0B2207211748CF
:1006D00000F005FC322000906946154800F0B7FB99
:1006E0000B220121124800F0FAFB0B2204211048D2
:1006F00000F0F5FB0B2205210D4800F0F0FB4FF454
:10070000D040009069460B4800F0A1FB0B22114637
:10071000084800F0E4FB0B220D21064800F0DFFB47
:100720000B220E21034800F0DAFB1CBD0000024042
:10073000000802400018024000200449096801F046
:10074000010109B1012000E0002070470090024043
:100750001EB500210022009201920292114A1268F5
:100760001268C2F30D42111F00910F4A126892687D
:10077000012A05D90C4A126812689268019203E0B6
:10078000084A126892680192064A12680292054A63
:100790001268D268034B1A609DE81C0080E81C00B8
:1007A0001EBD0000E0000020E400002010B501E0C4
:1007B00000F074FDFFF742FE0028F9D14020FFF75A
:1007C000A1FE4FF48030FFF79DFE10BD2DE9F041F2
:1007D00086B004460F464FF0000800250020059023
:1007E0009A4E00909A48056925F01C0501A800F072
:1007F00055FF029E9748864205D39748864202D20B
:1008000045F008051AE09448864205D38F48864291
:1008100002D245F00C0511E08C48864203D38F4884
:10082000864200D20AE08D48864205D38C48864233
:1008300002D245F0040501E045F010058448056149
:100840004FF400420021384600F0CCFA18B90020DD
:1008500006B0BDE8F0818348FFF7F7FE8148FFF757
:10086000F4FE8048FFF7F1FE7E48FFF7EEFE2068B9
:1008700000284ED000BF0098401C0090012138464F
:1008800000F006FA00F0040018B977490098884291
:10089000F1D375490098884201D10020D8E70020A3
:1008A00000904FF480520021384600F09BFA08B9BE
:1008B0000020CDE700BF0098401C00900121384681
:1008C00000F0E6F900F0200018B967490098884266
:1008D000F1D365490098884201D10020B8E7002093
:1008E00000901021384600F0D3F9804608F004004B
:1008F00018B14FF40060206201E00020206208F08F
:10090000020010B10020606116E04FF48040606189
:1009100012E0206AC0F3CF006169C1F34F0140EAE1
:1009200001020021384600F05DFA08B900208FE787
:100930006FF07F40FFF789FE454805684B4805404A
:10094000D4E901010843E16808432169084361696A
:100950000843A1690843E1690843216A0843616AC1
:100960000843A16A0843E16A0843216B0843616BAD
:100970000843054336480560D4E90E010843216C5D
:100980000843616C0843A16C0843E16C0843216D86
:100990000843616D08432E494860A06D8860E06D92
:1009A000C860084685694FF641700540B4F860108C
:1009B000606E40EA0140A16E0843E16E0843216F7A
:1009C0000843616F0843054321488561D4E91E014E
:1009D00008431F49C8612648856926480540D4E96F
:1009E00020010843D4F888100843D4F88C10084339
:1009F000D4F890100843D4F894100843D4F8981011
:100A00000843D4F89C100843D4F8A01008430543C9
:100A100017488561D4E929010843D4F8AC1008438C
:100A2000D4F8B0100843D4F8B41040EA8100D4F8E8
:100A3000B810084340F400000D49086008460068FB
:100A400040F080000860012002E700000087930367
:100A500000800240002D3101C00E160200E1F505B4
:100A600080D1F008FFFF0F00FFFF04000F8120FF7F
:100A700000900240233FDEF810B50B794C7943EA31
:100A80000422094B03441A64CB781B068C7843EA92
:100A900004434C7843EA04230C7843EA0402024BF3
:100AA00003445A6410BD00000080024000B5AFB09E
:100AB00001214FF0606000F0B1FDFFF7BBFD00F0D9
:100AC0001DF900BFFFF738FE0128FBD0684600F093
:100AD0002FF901200090002007904FF400700A9039
:100AE00000200B900E9011901390149015904FF4DD
:100AF00080600990002020904FF00070219000113C
:100B0000239000202590269004202890C00529904D
:100B100040122A9080012B9040122C9040002E9081
:100B200001216846FFF752FE01210248FFF7F0FC61
:100B30002FB000BD4000010030B10749096841F005
:100B40000401054A116005E00349096821F0040128
:100B5000014A1160704700000080024030B107492F
:100B6000096841F00801054A116005E00349096878
:100B700021F00801014A1160704700000080024026
:100B800008B54FF4407000F0E9FB3D208DF80000FF
:100B900000208DF801008DF8020001208DF803007F
:100BA000684600F09FFB08BD70B502460023002593
:100BB000002435480068006800F0004008B10020BB
:100BC00070BD3148016840F2F450824208DD92FB6A
:100BD000F0F392FBF0F600FB162010B15B1C00E076
:100BE0000123012B1AD128480068006840F04050CA
:100BF000254E36683060C2F30C00234E36687060B4
:100C000021480068006840F000401F4E36683060A0
:100C10001D480068C0681C4E306028E0002422E0B7
:100C20003CB919480068006840F08050164E36689C
:100C3000306040F2F4504860581EA0420DD1086860
:100C400040F000500860581EC0EBC01000EB4000A0
:100C5000A2EB8005C5F30C004860086840F0004036
:100C60000860C968641C9C42DAD3074801600748E1
:100C7000406900F0040020B10420044E706100209F
:100C8000706001209CE70000DC0000200090024022
:100C900018B502460B460021002000901548016956
:100CA00001F01C014FF4784000EAC22001434FF4E8
:100CB000F86000EA8310014321F0020141F00101D4
:100CC0000C48016100BF0098401C00900948016970
:100CD00001F0010018B1084C0098A042F3D3064C73
:100CE0000098A04201D1002018BD0248406980B29E
:100CF000FAE7000000800240FFFF0400034800689C
:100D000040F0010001490860704700000090024077
:100D100000B50120FFF722FFFFF7A6FC0120FFF737
:100D20000BFF0120FFF748FC0120FFF701FC00BD8D
:100D300001210160002141608160C16001614FF4C7
:100D40008041416100218161C1614FF40061016214
:100D5000002141628162C162016341638163C163B9
:100D6000402101642021416400218164C164016546
:100D700041658165C165016680214166002181660A
:100D8000C166016741678167C1674FF08061C0F844
:100D900080104910C0F884100021C0F888104FF46A
:100DA0000011C0F88C100021C0F89010C0F8941009
:100DB000C0F89810C0F89C10C0F8A0104FF0007157
:100DC000C0F8A4104912C0F8A8108901C0F8AC10EE
:100DD0004912C0F8B0100021C0F8B410C0F8B81023
:100DE0007047000038B503460C46002100200090F3
:100DF0001448016901F01C014FF4784000EAC32057
:100E000001434FF4F86000EA8410014341F002010D
:100E100041F001010B484261016100BF0098401C94
:100E200000900848016901F0010018B1064D0098D2
:100E3000A842F3D3044D0098A84201D1002038BD48
:100E40000120FCE700800240FFFF04007047F0B57E
:100E50000A4600210023002400BF3DE0012505FAD9
:100E600001F3156805EA03049C4234D105684F007C
:100E70000326BE40B543056015794E00B5400668AF
:100E8000354305601579012D02D01579022D16D153
:100E900085684F000326BE40B543856055794E00F6
:100EA000B540866835438560456801268E40B54368
:100EB0004560456896798E40B6B235434560C56851
:100EC0004F000326BE40B543C560D5794E00B540FE
:100ED000C6683543C560491C1029BFD3F0BDF0B5C5
:100EE000002300244D07ED0E02FA05F3CE1000F1A9
:100EF000200555F826504E07F70E0F26BE40B54385
:100F0000CF1000F1200646F82750CE1000F1200542
:100F100055F8265045EA0304CE1000F1200545F8A7
:100F20002640F0BD00BFFEE770B502460024002554
:100F300000230020958A138B1B0445EA030626F044
:100F40007F4404EA01068E4201D1012000E0002026
:100F500070BD21B1028842F00102028004E00288E3
:100F60004FF6FE731A4002807047000000B587B04C
:100F70000121202000F052FB042200211C48FFF731
:100F8000AEFF042201211A48FFF7A9FF03200190B8
:100F90008DF8090002208DF8080001208DF80A0064
:100FA0008DF80B0001A91248FFF751FF01218805B8
:100FB00000F054FB0020ADF810004BF6FF70ADF8C8
:100FC00012000A20ADF814004FF48060ADF816004E
:100FD0000001ADF818000748039003A9064800F087
:100FE00043F801210448FFF7B4FF07B000BD00003B
:100FF0000014024040420F000058004021B1028816
:1010000042F48072028004E002884FF6FF631A40C7
:101010000280704721B1028842F40072028004E02D
:1010200002884FF6FF531A40028070470CB5024603
:10103000002000230193009300920B0F019321F0F5
:101040007F41019B1BB1009B1433009303E0090C0B
:10105000009B18330093009B1B680B400BB10120D1
:1010600000E000200CBD00002DE9FF4704460D46BE
:101070000026B1460427DFF8CC80A6884FF6C07062
:101080000640684600F00AFBDDF808802E48B8FBF1
:10109000F0F01FFA80F946EA0906A68020884FF68C
:1010A000FE710840208000262849286888420CD814
:1010B00028684000B8FBF0F087B2042F00DA04275C
:1010C0003E4309F10100208427E0E8884BF6FF71D8
:1010D000884206D1286800EB4000B8FBF0F087B2E8
:1010E00009E0286800EBC00101EB0010B8FBF0F04C
:1010F00087B247F48047C7F30B0008B947F00107F0
:1011000047F4004006434FF4967009FB00F04FF49B
:101110007A7190FBF1F0401C2084A683208840F077
:101120000100208026884FF6F5300640A88869899E
:10113000084306432680A889298908432081BDE801
:10114000FF87000000127A0040420F00A0860100D5
:1011500012B141F0010101E001F0FE01018270478E
:101160000182704770B504460D4600BF4FF4003150
:101170001C48FFF75BFF0028F8D101211948FFF751
:101180003DFF00BF18491748FFF7CEFE0028F9D0F1
:10119000002278211348FFF7DBFF00BF13491148F5
:1011A000FFF7C2FE0028F9D021460E48FFF7D8FF0E
:1011B00000BF0E49891C0B48FFF7B6FE0028F8D087
:1011C00029460848FFF7CCFF00BF0849891C05489D
:1011D000FFF7AAFE0028F8D001210248FFF71AFF06
:1011E00070BD0000005800400100030082000700AD
:1011F00000B587B002F038FA02F086FB0B2001231D
:10120000A822C021009006A800F052F80020FF2379
:101210001A461946009005A800F04AF80120034636
:10122000A822C021009004A800F042F809480A4909
:10123000002204ABCDE90021029005AA06A90748C7
:1012400002F0AAFB054802F0F7FB044802F04EFC4E
:1012500007B000BD212500088D250008EC00002006
:1012600001B50C4900980968401AFA2804D30949C5
:101270000098086005F064F9074900980968401A69
:1012800041F28831884204D303490098086001F094
:10129000F7F808BD080000200C00002010B5024837
:1012A00001F08CF910BD0000EC00002000BFFEE74B
:1012B0002DE9F04104460D4616461F46DDF818801C
:1012C0002906F2B241EA0241FAB241EA022108F0EB
:1012D000FF0241EA020001F092FA2060BDE8F081CD
:1012E0007047000070B5002100230F22C4781CB3A2
:1012F000174C246804F4E064C4F5E064C4F30721E7
:10130000C1F10404E3B20A4144789C40E1B284781C
:10131000144021430C07210E0E4C057861550478CA
:1013200004F01F050124AC4005786D11AD0005F1F6
:10133000E025C5F8004109E0047804F01F05012408
:10134000AC40054D0678761145F8264070BD00008A
:101350000CED00E000E400E080E100E00249014320
:10136000024A1160704700000000FA050CED00E031
:1013700010B5002807DA0A07140E054A00F00F031B
:101380001B1FD45403E00A07130E024A135410BD66
:1013900018ED00E000E400E010B5002000F03BF89C
:1013A00010BD2DE9F05F06460F4690461C46DDF85D
:1013B00028A04FF0000BE11704EB5171C910A4EB0A
:1013C000C10131B92046E11704EB5171C1F3C705E2
:1013D00006E02046E11704EB5171C910491CCDB25B
:1013E0003D4614E02946304600F08BF8B1460AE04D
:1013F00059460BF1010B1AF8010000F014FB09F13A
:10140000010000F0FF09C145F2DB681CC5B2A5422E
:10141000E8DBBDE8F09F70B50646002415E004F156
:10142000B001C8B200F0F8FA002000F0F5FA102080
:1014300000F0F2FA002504E0304600F0F4FA681CEF
:10144000C5B2802DF8DB601CC4B2082CE7DB70BD90
:1014500010B56420FEF7BFFFAE2000F0DDFA2020BB
:1014600000F0DAFA102000F0D7FAB02000F0D4FA39
:10147000C82000F0D1FA002000F0CEFA102000F0D1
:10148000CBFA402000F0C8FA812000F0C5FAFF2016
:1014900000F0C2FAA12000F0BFFAA62000F0BCFACA
:1014A000A82000F0B9FA3F2000F0B6FAA42000F01E
:1014B000B3FAD32000F0B0FA002000F0ADFAD52046
:1014C00000F0AAFAF02000F0A7FAD92000F0A4FA60
:1014D000222000F0A1FADA2000F09EFA122000F09B
:1014E0009BFADB2000F098FA202000F095FA8D207E
:1014F00000F092FA142000F08FFAAF2000F08CFA7E
:1015000010BD70B504460D4605F1B001C8B200F03B
:1015100083FA102141EA141000F07EFA04F00F0162
:1015200041F0010000F078FA70BD00002DE9F047AD
:101530000646894617469A464FF0000800240025C3
:10154000BAF1010F03D0BAF1020F5ED125E020E01D
:10155000785D203800F0FF087E2E04DD002609F1BA
:10156000010000F0FF0949463046FFF7CAFF00249A
:1015700009E008EB4801264A02EB4101085D00F052
:1015800052FA601CC4B2062CF3DBB01DC6B2681C54
:10159000C5B2785D0028DBD137E032E0785D2038D5
:1015A00000F0FF08782E04DD002609F1020000F0AB
:1015B000FF0949463046FFF7A4FF002407E004EB8B
:1015C0000811144A505C00F02EFA601CC4B2082CBA
:1015D000F5DB09F10100C1B23046FFF792FF0024AC
:1015E00008E004EB081108310A4A505C00F01BFACD
:1015F000601CC4B2082CF4DB06F10800C6B2681CFB
:10160000C5B2785D0028C9D100BF00BFBDE8F08732
:10161000E46A00080C6D00087047000029B1064A12
:1016200012680243044B1A6004E0034A12688243C2
:10163000014B1A60704700003038024029B1064A59
:1016400012680243044B1A6004E0034A12688243A2
:10165000014B1A60704700001038024029B1064A59
:1016600012680243044B1A6004E0034A1268824382
:10167000014B1A60704700004038024029B1064A09
:1016800012680243044B1A6004E0034A1268824362
:10169000014B1A607047000044380240F0B5002149
:1016A00000220024022500260223324F3F6807F063
:1016B0000C0121B1042905D0082937D105E02E4FAE
:1016C000076036E02D4F076033E02A4F3F1F3F6829
:1016D000C7F38056274F3F1F3F6807F03F036EB1A7
:1016E000264FB7FBF3F7DFF88CC0ACF1040CDCF845
:1016F00000C0CCF3881C07FB0CF40CE01E4FB7FBBA
:10170000F3F7DFF870C0ACF1040CDCF800C0CCF3E8
:10171000881C07FB0CF4174F3F1F3F68C7F30147B6
:101720007F1C7D00B4FBF5F7076002E0124F0760F5
:1017300000BF00BF0F4F3F6807F0F0010909104FCD
:101740007A5C0768D74047600A4F3F6807F4E0516A
:10175000890A0B4F7A5C4768D7408760054F3F681E
:1017600007F46041490B064F7A5C4768D740C76071
:10177000F0BD0000083802400024F40040787D01EC
:1017800022000020704700000149086070470000F7
:10179000DC00274270B500217E250C46491C2A4BEF
:1017A0001D552A4B5D780C46491C274B1D55274B70
:1017B00058789D780C46491C234B1D55234B9B782C
:1017C0001844224BDD780C46491C1F4B1D551F4BFE
:1017D000DB7818441D4B1D790C46491C1A4B1D55CE
:1017E0001A4B1B791844194B5D790C46491C164B52
:1017F0001D55164B5B79184400220EE0134B9B1DC0
:101800009D5C0B464C1CE1B20F4CE5540F4B9B1DED
:101810009B5C034498B2531CDAB20C4B5B79934245
:10182000ECDC0346C41700EB1464C4F307260C4633
:101830004D1CE9B2044D2E55C41700EB146424125C
:10184000A0EB04246C5470BD240500205505002035
:101850007F20094908700948807848700748407817
:1018600088700648C078C870044800790871012063
:101870004871887170470000550500202D05002033
:101880000CB50020019000903448006840F480308E
:101890003249086000BF3148006800F40030009011
:1018A0000198401C0190009818B90198B0F5A04F1C
:1018B000F1D12A48006800F4003010B101200090F6
:1018C00001E0002000900098012846D123484030D4
:1018D000006840F08050214940310860204800688D
:1018E00040F440401E4908601C48083000681B490D
:1018F000083108600846006840F400400860084667
:10190000006840F4A05008601648091F0860081FCE
:10191000006840F08070091F086000BF0F48006831
:1019200000F000700028F9D040F205600E49086010
:101930000A480830006820F00300084908310860B0
:101940000846006840F00200086000BF0348083005
:10195000006800F00C000828F8D10CBD00380240E7
:101960000070004019544005003C024010B500F0E2
:1019700035F810BD10B51548006840F470001349E3
:1019800008601348006840F0010011490860002019
:101990000F49083108600E4800680E4908400C499C
:1019A00008600D48091D0860081F006820F48020A9
:1019B000091F0860002006490C310860FFF760FF2E
:1019C0004FF0006001498039086010BD88ED00E0EB
:1019D00000380240FFFFF6FE103000240248006885
:1019E0000A300149086070470000002010B504F07B
:1019F0004DFF04464FF4FA520449204604F02AFEF3
:101A000000220349204604F04FFF10BD3473000844
:101A10007969000800BFFEE710B5044621460020A2
:101A2000FFF7A0FB10BD10B5044621464020FFF78C
:101A300099FB10BD02E008C8121F08C1002AFAD1A4
:101A400070477047002001E001C1121F002AFBD13E
:101A5000704700001FB504460122074B606ACDE9BC
:101A6000000304F12B03CDE90202044A1946204683
:101A700000F062FC04B010BD427300083C73000823
:101A80007FB504460D46606A002850D0606A007930
:101A900000284CD094F82B008DF800002C20005D1D
:101AA0008DF801002D20005D8DF802002E20005DD4
:101AB0008DF803002F20005D8DF804003020005DBC
:101AC0008DF80500D5F80E000390A8690290606AB1
:101AD0000079012806D0606A0079022817D1606A6F
:101AE0004079A0B90398616A096888420BD00298CE
:101AF000616A0968884219D1062205F10801684621
:101B0000FEF782FB90B1204600F05BF80EE00398F0
:101B1000616A0968884209D1062205F10801684610
:101B2000FEF772FB10B1204600F034F800BF7FBD15
:101B30002DE9F04105460E462F214A5D3021495DD1
:101B400042EA0121104A881800F059FE074601F0C8
:101B5000E3FF0446686A407A0444A0B20B4940EAB5
:101B600001040948844201D204F57E4408488442B5
:101B700001D9A4F57E4400BF00BF204600F03FFE1F
:101B80003060BDE8F08100000001FEA90000FEA960
:101B9000FFFEFEA970B50446012575B1606A007AA2
:101BA000002803DD204600F00CF809E02046FFF78E
:101BB00051FF6420616A087202E0204600F001F8DB
:101BC00070BD70B505466C6A0026284601F01AFF04
:101BD00010B1284601F036FF00206860A860E86078
:101BE0006CB90A2001F072FD044614B94FF0FF30C1
:101BF00070BD00202060606020816C6205E00020E4
:101C00002071E08060712060207221462846FFF735
:101C10008FFF607A401C6072284600F002F8304660
:101C2000E6E710B5416A01220A7100224A713022AA
:101C3000125C13062E22125C43EA02432D22125C30
:101C400043EA02222F231B5C1A43436A13B1436AFF
:101C50005B7A00E000231A440A23B2FBF3F403FB8F
:101C60001422CA804A7A0A2A02DD4FF41672CA8008
:101C700010BD70B504460D4600BF04B970BD00BF6D
:101C8000206A58B1206A807C082807D12868216A18
:101C9000896A884202D1204600F098F800BFEDE73B
:101CA00070B5064600BF16B96FF0090070BD00BFE1
:101CB000346A00BF14B96FF00800F7E700BF00BF37
:101CC00000BF00BF00BF00224FF49A71104601F020
:101CD0002FFF6061606910B94FF0FF30E6E700BF89
:101CE00000BFE07C20B937480068401C35490860D7
:101CF00034480068206060694068A0610120A169E3
:101D00000870A16948700620A16988700020A16947
:101D1000C870206800F073FDA16948600020A169C7
:101D20000881A1694881A169C860A07C0A2805D002
:101D3000A07C052802D0A07C042802D17068A1698B
:101D4000C8600020A1690861A1694861A169886132
:101D500000250DE096F82A00A84203DD06F12B00CD
:101D6000405D00E00020A1691C314855681C85B227
:101D7000102DEFD3002505E00021A0692C3041553E
:101D8000681C85B2402DF7D3002505E00021A0692D
:101D90006C304155681C85B2802DF7D30A4800F09D
:101DA0002EFDA169C1F8EC000020A083002504E00D
:101DB000A069F0304555681C85B2442DF8D3002049
:101DC00074E7000034000020635382632DE9F84378
:101DD00005462C6A00260C21204600F0B5F828465E
:101DE000FFF75EFF064646BB01223521204600F084
:101DF0004EF80421204600F05AF8042232212046F1
:101E000000F045F8A06A01F087FE80464146204672
:101E100000F056F8204600F074F8A28BF03291B230
:101E2000606902F09EF8009543230B4A616960687F
:101E300004F03DFD284600F011F8E07C401CE07401
:101E400042F2107707F2F3104FF4FA7190FBF1F0C1
:101E5000E0833046BDE8F8833873000870B5054666
:101E600000BF05B970BD00BF2C6A00BF04B9F9E717
:101E700000BF00BF00BF00BF00BF606910B1606954
:101E800001F0F9FF00206061A06100BFEAE710B532
:101E900000BF00BF848B631C83838369F0331955B3
:101EA000848B631C83838369F0331A5510BD00BF94
:101EB00000BF838B5A1C82838269F032D1547047F1
:101EC00010B500BF00BF0B0E848B621C8283826939
:101ED000F0321355C1F30743848B621C82838269FD
:101EE000F0321355C1F30723848B621C828382690D
:101EF000F0321355848B621C82838269F032115553
:101F000010BD00BF00B9704700BF00BF00BF00BFD9
:101F100000BFFF22838B591C81838169F031CA5431
:101F200008E000BF00BF0022838B591C81838169B8
:101F3000F031CA54818B4429F3D3017F01F00301AE
:101F40000029EED100BFDEE7827C8A4202D0817494
:101F50000022C274704700002DE9FC5F06468946E6
:101F6000174600BF0EB9BDE8FC9F00BF78892A283C
:101F700003DA384601F07FFFF5E7D7F8048008F16F
:101F80000E04012000F048FC2188884215D140F25F
:101F9000046000F041FCA18888420ED14FF400603B
:101FA00000F03AFC6188884207D140F6060000F054
:101FB00033FCB8F80C10884203D0384601F05BFFC0
:101FC000D1E721463046FFF75BFDD4F80E000190C3
:101FD000A0690090706810B94FF0000A07E00098FF
:101FE0007168884201D1012000E000208246BAF1E8
:101FF000000F07D0012304F1080201A9304604F0C4
:10200000FBFC06E0002304F1080201A9304604F0BD
:10201000F3FCE08800F000FC012802D002283ED149
:1020200038E0BAF1000F33D0022000F0F5FBE08079
:10203000D4F80E00A0617068C4F80E0000BF00BFA5
:102040000625706A20B1706A007908B1174801E06E
:1020500004F10800834614E0681EC5B204F10800CC
:10206000415D0A3041551BF8050008F8050019F8D4
:10207000051004F10800415519F8051008F1060093
:102080004155002DE8DC39463046B269904700E002
:1020900000BF05E001A93046FFF7EBFD00E000BFFF
:1020A00000BF384601F0E7FE00BF5CE73C73000864
:1020B0002DE9F04104460F4600BF0CB9BDE8F081A0
:1020C00000BF7D6805F10E06F068A1680840D4E9FC
:1020D00001121140884200D0F0E70023AA1D06F14A
:1020E0000C01204604F088FC00BFE7E72DE9FC4125
:1020F00004460E4615460E21304601F0F3FE18B197
:102100006FF00100BDE8FC8100272146284600F061
:10211000BEFC08B1254F40E04FF0704001F0FCFCE0
:10212000296800EA01084FF0604001F0F5FC8045A5
:102130001DD101208DF8000000208DF801005E20E7
:102140008DF80200286801F0E7FCC0F306408DF826
:102150000300286801F0E0FC000A8DF804002868FC
:1021600001F0DAFCC0B28DF805006F4615E0286872
:10217000A1680840D4E901121140884207D0E06804
:1021800010B104F10C0502E06FF00300BAE732462B
:102190002946204600F00CF8B4E73B4604F12B0238
:1021A0003146204600F04AF9ACE700003C730008D5
:1021B0002DE9F84F81460F46164609F12B0A4FF0DC
:1021C000FF3000904946384600F061FC78B94FF086
:1021D000704001F0A1FC396800EA01054FF0604051
:1021E00001F09AFC854202D00FB1386818B96FF03F
:1021F0000900BDE8F88F0121384600F0F5F90446E2
:10220000002C01DA2046F4E704EB8400494901EB95
:102210008000807B30B9012004EB8401454A02EB49
:102220008101887300BF00BF04EB8400414901EBCA
:102230008000807B012800D02EB93946484600F046
:10224000E7F8009000BF002E71D004EB84003949FC
:1022500001EB8000807B02280CD104EB840001EBB1
:10226000800000F1080352463146484600F0E6F887
:1022700000905CE004EB84002E4901EB8000807B41
:10228000012854D14FF0000B354608E000BF00BFD5
:10229000287B012802D04FF0010B02E02D68002DB1
:1022A000F4D100BFBBF1000F10D029890022032018
:1022B00001F03EFC05466DB13146284601F037FD80
:1022C00040B1284601F0D7FD002503E035462846F9
:1022D00001F083FE55B3062001F048FB8046B8F1BB
:1022E000000F1FD00020C8F80000C8F8045004EB0D
:1022F0008400104951F8200060B104EB84010D4ABC
:1023000052F8210000E0006801680029FBD1C0F804
:10231000008004E004EB8400064941F8208000209E
:10232000009002E0284601F0A6FD00BF00BF009823
:102330005FE70000C05700202DE9FF4F83B007463C
:1023400089469A46DDF840B00020029000222A21FA
:10235000032001F0EDFB8046B8F1000F04D14FF0EF
:10236000FF3007B0BDE8F08F00BF00BFD8F80460B1
:1023700006F10E05139800F04FFAE88000BF00BF89
:102380000624786A20B1786A007908B11F4800E015
:102390000598019012E0601EC4B21AF8041005F10D
:1023A000080001551198015D05F1120001550198D1
:1023B000005D305519F80410B01D0155002CEADC01
:1023C000DBF80000C5F80E0012980068A861012033
:1023D00000F022FA28804FF4006000F01DFA6880B7
:1023E00040F2046000F018FAA88040F6060000F001
:1023F00013FAB08141463846BA6990470290404688
:1024000001F039FD4FF000080298AAE73C7300087C
:102410007FB504460D460121064A201D04F12B0319
:102420008DE825000391044A19462046FFF784FFF2
:1024300004B070BD427300083C7300082DE9F047FA
:1024400006460F46904699467D6800BF00BF0624A9
:1024500008E0601EC4B219F80400285518F80410EA
:10246000A81D0155002CF4DC4FF4006000F0D4F9F5
:10247000A88139463046B2699047BDE8F087000030
:1024800010B5002446E004EB8400244901EB8000F1
:10249000C07B401C04EB8401204A02EB8101C8731D
:1024A00004EB8400114601EB8000807B022806D1FA
:1024B00004EB840001EB8000C07BF0280EDA04EB13
:1024C0008400164901EB8000807B012820D104EBB9
:1024D000840001EB8000C07B022819DB04EB840040
:1024E0000E4951F8200060B104EB84010B4A52F808
:1024F000210000F06FF9002004EB8401074A42F844
:102500002100002004EB8401044A02EB810188735E
:10251000601CC4B20A2CB6DB10BD0000C0570020FE
:102520002DE9F04104460D466668B08900F074F963
:102530000746B7F5006F03D0A7F60600E8B915E027
:1025400021462846FFF7B4FD6FF00D01204601F04B
:10255000C9FC30B100BF00BF204601F08CFC002454
:1025600003E02946204600F05FFB0BE0224605F120
:102570002B012846FFF7F0FC04E0204601F07BFC2D
:10258000002400BF00BF0020BDE8F08110B5044664
:1025900000BF00BF732084F832007421332001553E
:1025A000044860610448A061204600F025FF002037
:1025B00010BD0000ED2000084935000870B5044644
:1025C000204600F06BFF064616B94FF0FF3070BD95
:1025D000214630462269904705461DB1304601F03C
:1025E0004AFC00262846F2E72DE9FC5F05460F4627
:1025F0004FF00A08C1460A260024A3460020019095
:10260000B2460090CDB17148007800EB800070496F
:1026100001EB8000807B02280FD128686B49097884
:1026200001EB81016A4A02EB81014968884204D1C9
:102630006648007840B2BDE8FC9F002473E00A2E93
:1026400008D104EB8400624901EB8000807B08B96B
:1026500066B266E004EB84005D4901EB8000807B9C
:10266000012836D165B1286804EB8401584A02EB91
:1026700081014968884203D15448047060B2DAE7A6
:1026800004EB8400524951F8200088B104EB840027
:1026900001EB8000C17B0098814242DB4FFA84FA53
:1026A00004EB84004A4901EB8000C07B009038E0D5
:1026B00004EB8400464901EB8000C07B584530DBC9
:1026C0004FFA84F804EB840001EB800090F80FB01F
:1026D00027E004EB84003E4901EB8000807B022868
:1026E0001FD165B1286804EB8401394A02EB8101EE
:1026F0004968884203D13548047060B29BE704EB17
:102700008400334901EB8000C17B0198814208DBE2
:102710004FFA84F904EB84002D4901EB8000C07B63
:102720000190601CC4B20A2C89DB0A2E02D107F08A
:10273000010010B107F0020010B14FF0FF307AE74E
:102740000A2E01DAF4B222E0B9F10A0F03DA09F035
:10275000FF0400BF1BE0B8F10A0F02DA08F0FF0423
:1027600015E0BAF10A0F0FDA0AF0FF0404EB840156
:10277000174A52F8210000F02DF8002004EB8401E4
:10278000134A42F8210002E04FF0FF3053E700BF48
:1027900000BF002004EB84010D4A02EB8101887325
:1027A00045B105B900E0286804EB8401084A02EB52
:1027B00081014860002004EB8401054A02EB81019D
:1027C000C8730248047060B235E70000DA000020E8
:1027D000C057002070B5044600BF00BF00BF00BF57
:1027E0000AE02546246800BF00BF686801F043FB8B
:1027F0002946062001F078F8002CF2D170BD014680
:10280000080601F47F4240EA022001F47F0240EA18
:10281000122040EA1160704701460806000C40EAA9
:102820001120704770B505460C4622460321284604
:1028300000F0B9F870BD2DE9FF5F054689466C6868
:10284000208801F06FF9C0F303204FEA8008C8F137
:102850000001284601F046FB10B92889042800D25F
:1028600098E0686890F800A0BAF1080F7CD10126C2
:102870004FF0704001F050F9216900EA010B4FF070
:10288000604001F049F9834500D10026494604F132
:10289000100000F0FCF800B1002626B9284601F02F
:1028A000EAFABDE8FF9F2889082800D272E028468E
:1028B00000F0C2F818B1284601F0DDFAF1E7222154
:1028C000284601F00FFB48B34146284601F00AFBB9
:1028D00010B100BF00BF61E029890022022001F091
:1028E00027F9064606B959E000BF00BF2946304621
:1028F00001F01DFA10B100BF00BF4FE07468C8F1CD
:10290000000001B2304601F0EDFA10B100BF00BF87
:1029100044E0284601F0AFFA354608E06FF02101A7
:10292000284601F0DFFA10B100BF00BF36E06F6843
:10293000E06803902069E06003982061002038700F
:102940007880208901F0EEF8C0B240F47F4630462E
:10295000FFF762FF2081002060814146284601F098
:10296000C1FA10B100BF0EE00EE001200021FF23EC
:102970000A46CDE90109009104F10C01284600F056
:1029800053FA064600BF00E000BF00BF284601F032
:1029900072FA86E7284601F06EFA82E7284601F0CF
:1029A0006AFA00BF7DE72DE9FC4706460F469046D0
:1029B00000222421012001F0BBF805460DB9BDE835
:1029C000FC8700BF00BFD6F804906C68277084F8BD
:1029D00001800020A080E08071686A6802F1080030
:1029E0001C22FDF7EDFB002060806989204600F085
:1029F00019F8608001200021FF2309F10C02CDE9C4
:102A00000010284600F0F6F9284601F034FA00BF1D
:102A1000D5E770B505460C4622460B212846FFF740
:102A2000C2FF70BD70B504460D462946204600F031
:102A3000A7FDC04380B270BD2DE9F04106460024D9
:102A40000027354617E06989686800F099FD04445D
:102A5000A0B200EB1444688900EBD0714910A0EBE0
:102A6000410139B1C7F10100C7B2E0B2C4F3072197
:102A700041EA00242D68002DE5D127B1E0B2C4F36E
:102A8000072141EA0024E04380B2BDE8F08130B57F
:102A900003461A68D04300B10AB9012030BD91F84D
:102AA000310000F0020008B90020F7E748689042C2
:102AB00001D10020F2E718688C682040D1E9014577
:102AC0002C40A04208D1886822EA00008D68EC43BF
:102AD000A04201D10120E1E70020DFE72DE9F74F17
:102AE00086B08846B8F8280005901420019002228C
:102AF0000021104601F01CF8054625B94FF0FF30C3
:102B000009B0BDE8F08F059868812881454820F01C
:102B1000030068606C680698142241682046FDF73F
:102B20004FFBE08800F0FEFF0746C7F30C0004905F
:102B300007F40050039006980089143886B205996E
:102B4000A1F11400C11700EB5171C1F3CF0B61E08B
:102B500005981438B04201DB012000E0002002900B
:102B60000498C0F30C00039940EA0107029808B9E1
:102B700047F40057029808B1304601E04FEACB0015
:102B80001FFA80FA524604F11401019B069801F0E5
:102B900029F90199084480B201903846FFF73CFEBC
:102BA000E0800AF1140188B2FFF736FE6080002051
:102BB000608114212046FFF735FF6081029828B11B
:102BC00006F1140081B2284601F0CBF9002211462B
:102BD000022000F0ADFF8146B9F1000F0DD029466B
:102BE000484601F090F8D8F8143049464046089A13
:102BF0009847484601F03FF905E0284601F03BF9C7
:102C00004FF0FF307CE7A6EB0A0086B204985844E8
:102C100080B20490002E9BD1284601F02CF90020B0
:102C20006EE70000E35100202DE9F05F06460F46F5
:102C30004FF0010A7468208800F074FF0421B1EBA2
:102C4000203F05D0304601F016F90020BDE8F09F86
:102C5000208800F067FFC0F303284FF6FF7000EAFA
:102C60008808608800F05EFF81467089404502DB7D
:102C70003089484504DA304601F0FDF80020E5E7E8
:102C80004946304601F06DF94FF0010B3D4600BF5B
:102C9000284600F0B7FE70B1281D60B1686850B1D9
:102CA00020696968884205D0294604F11000FFF7C1
:102CB000EEFE00B10DE0BBF1000F04D04FF0000BB1
:102CC0004948056800E02D68BD4200D12D68002DFF
:102CD000DED100BF7DB9208900F024FFC0B21128E9
:102CE00009D104EB0801488800F01CFF442802D1F8
:102CF0003D464FF0000ABAF1000F19D0E068B8B1B4
:102D0000394604F10C00FFF7C2FE60B94FF0704085
:102D100000F002FFE16800EA010B4FF0604000F0B4
:102D2000FBFE834504D1304601F0A5F800208DE775
:102D300025B9304601F09FF8002087E743F6FF7081
:102D4000FFF76AFDE188084038B1304600F0EAF844
:102D500006460EB9002079E77468244807602448C5
:102D600004603946304601F081F9A8BB208900F0A3
:102D7000D9FEC0B201280DD0062806D011280ED1E8
:102D80003946304603F09EFC25E03946304601F0D6
:102D900017FD20E039463046FFF74DFD1BE0394670
:102DA00004F11000FFF773FE88B94FF0704000F097
:102DB000B3FE216900EA010B4FF0604000F0ACFE69
:102DC000834504D0746002213046FFF72BFD304666
:102DD00001F051F800BF00BF002004490860044919
:102DE000086000BF32E7000048000020C800002053
:102DF000CC0000202DE9FE4F05460E4614461F4626
:102E0000DDE90C89204600F0CFFAB0F1000A02D1CA
:102E1000001FBDE8FE8F3B462246314628468DE81E
:102E2000000700F001F8F4E72DE9F05F06460F46D1
:102E300090469A460C9DB8F1000F5BD04FF01409F4
:102E40001421304601F04EF818B16FF00100BDE8D2
:102E5000F09F746800BF00BF208900F063FE6AF332
:102E60001F208346FFF7D8FC2081208900F05AFEFE
:102E700001120B9840EA012B5846FFF7CDFC208148
:102E8000B8F1000F01D1002001E0D8F80000206166
:102E9000CB464FEAE97109EB917189104FF48042FA
:102EA00042EA01210A9A114388B2FFF7B5FC20805B
:102EB0003089FFF7B1FC60800020E080184800886E
:102EC000FFF7AAFCA08016480088401C144908801F
:102ED0000FB1386830B9281D08B9002000E06868D3
:102EE000E06004E00FB9002000E03868E0600020F6
:102EF000608102E0746804F11008288D48B13089BF
:102F0000298D884205DD424629463046FFF7E6FD19
:102F10009DE74246314628466B69984797E700008F
:102F2000D00000202DE9FC5F804600200090D8F8FA
:102F30000450288800F0F6FDC0F303201421B1EB03
:102F4000800F00D0B1E0E88800F0ECFDC0F30C0089
:102F50004FF6FF7101EAC00A688800F0E3FD83467E
:102F6000288800F0DFFDC0F30320ABEB800080B2C7
:102F70000190404600F0D2FE06464E48018888196E
:102F80000A280ADD3146284600F0D0F920B1494828
:102F9000008830440A2800DD87E04748046812E0D2
:102FA0006069E968884209D1A0692969884205D128
:102FB000A089A988884201D1012000E0002000B149
:102FC00003E000942468002CEAD100BF34B93146F4
:102FD000284600F03DF9044694B966E0E88800F020
:102FE000A1FDC0F30C0058B9E08900F09BFDC0F3CF
:102FF0000C0028B11422294604F10800FDF7E0F87E
:103000002C48008830442B490880E88800F08AFD6D
:1030100000F4005030B9A07F40F00100A077019883
:103020005044A0834146204600F048F8D0B3A08B1E
:103030001430A0836068406807686068456814229F
:1030400004F108012846FDF7BBF8A08BFFF7E4FB6D
:1030500068800020E880688114212846FFF7E2FCA0
:103060006881D4F804800CE0D7F804906FF0130165
:10307000384600F037FF3946404600F028FED9F8C0
:103080000070002FF0D12046009900F0CBF84046A8
:1030900000F044FE07490988081A0649088040469E
:1030A000BDE8FC9FFFE70020FAE7404600F0E3FEA2
:1030B0000020F5E7D8000020D40000202DE9FE4FC5
:1030C00081460E46002501200090D6F804A0BAF8EB
:1030D000020000F027FD8346BAF8000000F022FD50
:1030E000C0F30320ABEB800080B20190BAF8060079
:1030F00000F018FDC0F30C004FF6FF7101EAC000AC
:10310000029000BF00BF7468002020600298A08079
:10311000DDE901100844E080D9F804802AE0D8F8FD
:103120000470A088B988884210DAC4F8008055B1CC
:10313000A088E988884203DBE088B988884200DDFE
:1031400060E02E6001E0C9F8046016E0A088B9884C
:10315000884200D156E0A088F988884200DA51E020
:103160002DB1E888B988884201D000200090D7F8B6
:1031700000803D46B8F1000FD1D100BFB8F1000F7B
:103180000ED14DB100BF00BF2E60E888A1888842F3
:1031900006D00020009003E000BF00BFC9F8046023
:1031A00099F81E0000F0010050B3009828B3D9F838
:1031B00004004068808810B1002000901DE0254682
:1031C000D4F800800BE0D8F80440E888A188884251
:1031D00002D00020009005E02546D4F80080B8F128
:1031E000000FF0D100BF009838B100BF00BF00BF92
:1031F00000BF00BF00BF00BF00BF0098BDE8FE8F4A
:103200000020FBE7304600F089FD05490988081ACF
:1032100003490880304600F02EFE0020EEE7000053
:10322000D800002070B504460D4608480068A0424A
:1032300003D106492068086003E000BF00BF206892
:1032400028602146052000F04FFB70BDD40000200F
:1032500070B505460E46052000F088FB044664B9AB
:103260003146284600F062F8B04203DB052000F04A
:103270007DFB04460CB9002070BD20212046FCF7E0
:10328000B8FF0320E0770648006820600448046027
:103290001422294604F10800FCF792FF2046EBE7D0
:1032A000D40000202DE9F04704468846002600BFE0
:1032B00000BFB8F1000F01D000BF00BF60684768D1
:1032C000B88898B9656838686060142204F108010C
:1032D0006868FCF775FF01212846FFF79AFB28462E
:1032E00000F01CFD0644284600F0C5FD65680AE0B4
:1032F0006F68A9463D68484600F010FD0644484600
:1033000000F0B9FD00BF002DF2D141462046FFF785
:1033100089FF00BF00BF04480088801B0249088065
:103320003046BDE8F0870000D80000202DE9F05FAE
:1033300005468946002700BF0026B346B246194815
:1033400004681DE06069E968884207D1A0692969BD
:10335000884203D1A089A988884201D0012000E0D9
:10336000002048B10AF1010A0EB9264604E0E07FC8
:10337000F17F884200DC2646206800B1A34624681D
:10338000002CDFD12EB159463046FFF78BFF804627
:1033900047444F4502DABAF1010FCDDC3846BDE8AB
:1033A000F09F0000D400002070B505461048046866
:1033B0000EE0204600F026FB48B12868A1680840CE
:1033C000D4E901121140884201D1204670BD246821
:1033D000002CEED10748006820B10648006800F0D4
:1033E00011FB08B90020F1E702480068EEE7000091
:1033F000480000204C0000207CB5044621A103C9F0
:10340000CDE90001062084F82A009DF8000084F828
:103410002B009DF801102C2001559DF802102D2045
:1034200001559DF803102E2001559DF804102F2002
:1034300001559DF805103020015504F12B010020A5
:10344000FDF71AFB40F2DC502085322084F8310071
:1034500002220E490E48FDF7C1F804220D490E481C
:10346000FDF778F8002507E0094901EB45104FF416
:103470004001FDF7DBF86D1C022DF5DBFDF748FC84
:103480007CBD000000000000000100001871002059
:103490000859002048590020885800202DE9F04F95
:1034A00087B083460027B846002601A8FDF750F9EB
:1034B00001A807C804AB07C304981FFA80F9DDF818
:1034C00014A003224946104600F032FB064666B1BE
:1034D000344608E062890AEB07016068FCF770FE79
:1034E000608907442468002CF4D11548006880687E
:1034F000012803D912480068056800E0069D4FF0D6
:10350000000805E04FF000402860ED6808F1010870
:103510000B48006880684045F4D8002008490968D5
:1035200088600848406900F0800020B1802005498B
:10353000486100208860304607B0BDE8F08F000089
:10354000E4000020009002402DE9F04180460E4644
:1035500000250A4800688768344607E062897819C0
:103560006168FCF72DFE608905442468002CF5D1C4
:10357000A8B2FDF719FB0020BDE8F081DC000020B7
:103580002DE9F04180460E460024454608E02878A3
:1035900007026D1C287807436D1C3C44B01E86B2A0
:1035A000012EF4DC002E02DD287807023C44A0B294
:1035B00000EB1444200C000410B1A0B200EB144442
:1035C000A0B2FFF729F9BDE8F0810000FCF70EFF7B
:1035D000FDF70EFEFEF70AFAFDF7C8FCFDF738FF0F
:1035E0000A20FCF7F8FEFDF7D7FE022305A2002112
:1035F0000846FDF79BFF03E006480068FDF730FE34
:10360000FAE700007A7A7A7A7A7A7A7A7A7A7A7A21
:10361000000000000000002070B5054605B970BD2F
:1036200000BF00BF00BF00BF0C480068854203D345
:103630000B480068854200D3F1E7A5F1080400BFFC
:1036400000BF0020207107480068844201D205486D
:103650000460204600F0C6FC00BFE0E73800002010
:103660003C0000204000002000BF00BF124921F0B4
:103670000301124A1160114608684FF4205101807D
:103680000021418001711146096801F520510C4A61
:1036900011600121126811714FF42051084A12681B
:1036A0001180074A126851800121064A11700349AE
:1036B0000968054A11607047800500203800002025
:1036C0003C000020440000204000002070B502466D
:1036D0000AB9002070BDD01C20F0030082B20C2A71
:1036E00000DA0C22B2F5205F01DD0020F2E730485D
:1036F0000088304E3688801B83B253E02D48006826
:10370000C118087900284AD10E8803F10800301A40
:10371000904244D30E8803F10800361A02F11400D7
:10372000864218D303F10800104485B2214800688E
:103730004419002020710888208063800D800120BA
:1037400008712088B0F5205F07D02088194E3668B0
:103750003044458001E0012008711548006881422D
:1037600014D107E0124800680088124E36683044D1
:103770000F4E30600E480068007928B10C48006890
:103780000D4E3668B042EDD100BF00BF00BF00BF94
:1037900000BF00BF00BF00BF01F108009AE7054865
:1037A0000068C35AC2F520509842A7DC002091E778
:1037B00040000020380000203C0000202DE9F041AE
:1037C00006460A46D01C20F0030082B20C2A00DA1A
:1037D0000C22B2F5205F02DD0020BDE8F08100BFC1
:1037E00000BF3E480068864203D33D4800688642D9
:1037F00001D33046F1E7A6F1080438480088201AC2
:1038000085B22088401B083887B200BF00BFBA428B
:1038100001DD0020E1E7BA4201D13046DDE7208832
:10382000DFF8B8C0DCF800C000EB0C01087980BB01
:10383000088805F1080C94441FFA8CF3DFF8A4C043
:10384000DCF800C08C4508D1DFF890C0DCF800C07F
:103850009C44DFF89080C8F800C0DFF880C0DCF836
:1038600000C00CEB03014FF0000C81F804C008808D
:103870004D802380B1F800C0BCF5205F08D0B1F8BE
:1038800000C0DFF85880D8F80080C444ACF802309B
:1038900022E0FFE702F11400B8421DD805F108004C
:1038A000104483B20D480068C1180E480068814278
:1038B00001D20C48016000200871208808804D80EA
:1038C00023800888B0F5205F06D00888DFF80CC098
:1038D000DCF800C06044438030467EE738000020BA
:1038E0003C0000204000002001B9704700BF00BF2D
:1038F0000A46044B53F820301360024B43F8202053
:1039000000BFF2E7942D002010B5002001E0431C19
:1039100098B20928FBDB114B23F00301002019E0CA
:1039200000230F4C44F8203000220CE00C4B53F8DD
:1039300020300B600A4B43F820100A4B33F810304C
:103940001944531C9AB2084B33F810309342EDDC03
:10395000431C98B20928E3DB10BD0000BB2D0020FA
:10396000942D0020FC7200080E730008024600BF70
:10397000092A01DB0020704700BF064850F82210DA
:1039800031B1044B086843F8220000BF00BF00BFFC
:103990000846F0E7942D00202DE9F04704460D4637
:1039A00016461F46DDE909A9DDF820800020606089
:1039B000A060E06084F8310020626062C4F81C807E
:1039C0000E48007884F834000C480078401C0B49FD
:1039D0000870C4F810903B4632462946204600F055
:1039E00017F82046D04710B10020BDE8F087044802
:1039F00000682060024804602046F6E7500000207E
:103A000048000020014691F8310000F001007047A5
:103A10002DE9F04106460F4614461D46394630460C
:103A200000F022F82146304600F05AF82946304688
:103A300000F014F8BDE8F08101490860704700000B
:103A40004C00002090F8311001F0010129B190F8EC
:103A5000311021F0010180F83110704709B90022BE
:103A600000E00A68C26070472DE9F04107460D4644
:103A700028687968884201D1012000E0002018BB45
:103A8000154806680CE030687968884207D1D6F896
:103A90000C800121304600F01DFB464600E0F66830
:103AA000002EF0D10D4804680CE054B1206840B1FC
:103AB00020687968884204D10DB9002000E02868A8
:103AC0002060E468002CF0D10DB9002000E02868E7
:103AD0007860BDE8F0810000900000208C0000209C
:103AE00009B9002200E00A688260704710B50446F8
:103AF00094F8310000F0010068B914F8310F40F07B
:103B00000100207014F8310900F0200018B1211DC7
:103B10002046FEF77DFC10BD00B503461846FEF7B3
:103B20006EFE00BD00B502461046FEF775FE00BDF4
:103B30002DE9F05F83460F4690460026BBF1000F4B
:103B400009D0BBF1010F0AD0BBF1020F0BD0BBF1C2
:103B5000030F0DD10BE006F1140086B200BF06F191
:103B6000140086B200BF06F10E0086B205E004E044
:103B700000BF00BF0020BDE8F09F00BFB8F1000FFC
:103B800068D0B8F1010F74D0B8F1020F72D0B8F15B
:103B9000030F70D10820FFF7E9FE04460CB900209E
:103BA000E9E784F80C800020206006F11000204432
:103BB000C01C20F00300606000BF00BF2781F01C24
:103BC00020F00300C0F50070B84201DD384604E083
:103BD000F01C20F00300C0F50070608100BF00BF42
:103BE00000BF00BF0120E081A2466089A7EB000969
:103BF0002CE00820FFF7BAFE054625B9204600F064
:103C00003AF90020B7E785F80C8000206873286037
:103C1000CAF8005000BF00BFA5F808901FFA89F04D
:103C2000B0F5007F02DA1FFA89F001E04FF400706E
:103C3000688105F11000686000BF00BF00BF00BFD1
:103C40000120E8816889A9EB0009AA46B9F1000FB3
:103C5000CFDC35E006F1130121F00302F91C21F05D
:103C60000301114488B2FFF731FD044624B9002056
:103C700081E711E011E01FE004F110003044C01CA6
:103C800020F003006060278167810020206084F8B5
:103C90000C8000BF00BF13E000BF0720FFF766FEE7
:103CA00004460CB9002066E7002060602781678128
:103CB000206084F80C8003E000BF00BF00205AE7BA
:103CC00000BF0120E08100206073204653E710B55B
:103CD000024600BF02B101B910BD00BF104604E0AA
:103CE00003890C892344038100680368002BF7D102
:103CF00000BF00BF00BF00BF03890C8923440381BC
:103D0000016000BFE8E730B505460C46214628466D
:103D1000FFF7DDFF204600F060F930BD01460020CE
:103D200002E0421CD0B209680029FAD170472DE99F
:103D3000F04105460C460026002700BF25B11CB106
:103D400028892189884203DA6FF00900BDE8F081F3
:103D500000BF00BF00BF00BF6889801B6189C91B0D
:103D6000884204DB6089C01B1FFA80F803E0688981
:103D7000801B1FFA80F86268D1196A689019424660
:103D8000FCF71EFA06EB080086B207EB080087B2C4
:103D900000BF00BF6889B04201D100262D6800BF76
:103DA00000BF6089B84201DC0027246854B16089F3
:103DB0002189884206D100BF206810B16FF0080049
:103DC000C4E700BF55B168892989884206D100BF80
:103DD000286810B16FF00800B8E700BF002CB9D117
:103DE0000020B3E72DE9F05F8046894616461D4660
:103DF0004FF0000B00BFB8F1000F02D10020BDE86A
:103E0000F09F00BF00BFB9F1000F01D10020F6E71D
:103E100000BF4FF0000AB8F1000F02D0B9F1000F57
:103E200001D10020EBE7444620E035B16089A8428B
:103E300003DC6089281A85B217E06089401B87B2CD
:103E4000B74200DD37466268511909EB0A003A466D
:103E5000FCF7B6F90BEB07001FFA80FB0AEB070033
:103E60001FFA80FAF01B86B2002524680EB1002CE0
:103E7000DBD15846C3E72DE9F041044624B900BF21
:103E800000BF0020BDE8F08100BF00BF002625E094
:103E900000BF00BFE089401E1FFA80F8A4F80E8022
:103EA000B8F1000F18D12768257B032D04D12146D6
:103EB0000820FFF719FD0BE0012D01D0022D04D1E0
:103EC00021460720FFF710FD02E02046FFF7A4FB84
:103ED000701CC6B23C4600E0002400BF002CD7D1C5
:103EE0003046CFE770B5024600BF00BF01B10AB946
:103EF000002070BD002908DA484284B200BF508912
:103F0000A04201DA0120F4E700E08CB2137B55688F
:103F10000BB1032B0AD15068401A506002F1100017
:103F20005668864215D255600120E2E7022B01D087
:103F3000012B0AD1002906DA5089A04203DB506820
:103F4000401A506005E00120D3E700BF00BF012008
:103F5000CFE750890844508110890844108100201F
:103F6000C7E72DE9F04106460F4600BF00BF00BF7E
:103F700000BF3089B84201DCBDE8F0813089A7EB91
:103F800000083D4634460AE06089281A85B200BF21
:103F900000BF208940442081246800BF00BF6089A1
:103FA000A842F1DB207B60B96089A84209D0A088D3
:103FB000001B284481B22046FFF700FC044600BFE6
:103FC00000BF658160892081206810B12068FFF7FB
:103FD00052FF0020206000BFCEE710B1C189491C0C
:103FE000C181704730B500BF00BF00BF00BF00BF38
:103FF00000BF00BF00BF0388194C2468191988420C
:1040000015D00B799BB9174B1B6899420FD0164BF3
:104010001B688B4201D1144B18600B880380104B36
:104020001B88C31A0C880E4D2D682C44638043886E
:104030000B4C24681A19824211D013797BB90A4BB0
:104040001B68834201D1084B1A6003881380044B1C
:104050001B88D31A0488024D2D682C44638030BD20
:10406000380000203C000020400000202DE9F047EF
:1040700005468A464FF000086F683889FFF752FD01
:1040800000F0FF0900261248046819E0207C48452A
:1040900014D1606990B107F10C032A462146D4E996
:1040A00005C0E04750B100254FF0010836B1E06887
:1040B000F06007480068E060054804602646E46850
:1040C000B8F1000F01D1002CE0D14046BDE8F087E7
:1040D000540000202DE9FF5F04460E46207C0A288C
:1040E00008D12146204801F0D1F821460220FFF7EF
:1040F000FBFB37E0A76DD4F824800CB9002000E06A
:1041000020680290201D08B9002000E0606803903C
:10411000B4F818A0B4F82090D4F89050D4F814B0A3
:104120002146124801F0B2F8A06F10B1A06F01F063
:10413000F0FF606F10B1606F01F0EBFF21460220CD
:10414000FFF7D2FB00BF1DB16FF004015846A8472E
:1041500000BF3EB103AB02AA41463846CDE900A9F3
:1041600001F072FFBDE8FF9F940000209000002046
:1041700070B506460220FFF7F9FB04467CB900F053
:10418000ABFD0220FFF7F2FB04463CB9304600F0DD
:1041900077FD0220FFF7EAFB044600BF00BF002CBA
:1041A00039D0A0212046FCF724F84020183404F828
:1041B000070C41F2D060A4F856000020A4F8580083
:1041C00040F6683020826082002004F80E0CFF2048
:1041D00004F80D0C4FF40670208406202086002081
:1041E000A0850620E085C01FE0830120608700F0E5
:1041F0002BFE0546E5642564656325650748006870
:10420000A061002020770648E0660648E0670020AD
:1042100084F88500183C204670BD00008400002012
:10422000D95E000800DD6D0070B50546287C0828C1
:1042300064D2DFE800F004323D485163635A002441
:1042400000BF34480068A84205D132480068C06801
:104250003049086018E02F4800682F4908600EE0D8
:104260002D480068C068A84204D12B49E868096855
:10427000C86008E028480068C068274908602648E8
:1042800000680028ECD100BF0020E86000BF29468C
:104290000220FFF729FB002533E0002429461F48B0
:1042A00000F0F4FF29460320FFF71EFB002528E05D
:1042B000002429461A4800F0E9FF29460220FFF7AA
:1042C00013FB00251DE00121284601F031FF0446C3
:1042D0000CB90520287414E00121284601F028FFBC
:1042E00004460CB9052028740BE00121284601F092
:1042F0001FFF04460CB90920287402E000240025A1
:1043000000BF00BF1DB114B9284600F0ABFD204628
:1043100070BD000088000020980000208C00002064
:10432000900000202DE9F04105460E463046FFF78B
:104330003BF8044654B1208D40B1208D283887B217
:10434000BD4201DA284600E0384605462846BDE869
:10435000F0812DE9FF4F87B005469A4600BF0998C6
:1043600048B9159838B90AF0030020B96FF0090070
:104370000BB0BDE8F08F00BF00BF099820B90898C6
:1043800010B16FF00900F3E700BFB5F86E1009989F
:10439000814208DA95F8220040F0800085F822007A
:1043A0004FF0FF30E4E709980490089802901598C0
:1043B00000F0010008B1042100E00021159800F090
:1043C000020008B10C2000E0002001EB0009A86EFB
:1043D0000590B5F87080B8F1080F03DA4FF6FC705D
:1043E000804508DD95F8220040F0800085F8220025
:1043F0004FF0FF30BCE7B8F1000F01D000BF01E083
:1044000000BF00BF00242746264600200390C6E0D8
:10441000288FA0EB09010498814203DA288FA0EBD2
:10442000090000E0049880B203900420FFF79EFA90
:10443000044604B976E10020206060600FB9274689
:1044400002E000BF00BF34602646149800F001006F
:10445000F8B10398484481B200221046FFF768FB88
:10446000606000B95EE100BF00BF6068FFF756FC06
:1044700040441FFA80F8089838B16168496801EB38
:104480000900DDE90212FBF79BFE60684068A0604E
:104490002CE0002249461046FFF74AFB606000B955
:1044A00040E16068FFF73AFC40441FFA80F8049846
:1044B00000281BDD012203200399FFF739FB06903A
:1044C00028B96068FFF7D7FC002060602AE108F196
:1044D00001001FFA80F80699029848600298A060CF
:1044E00060680699FFF7F3FB00200690B8F1080F0B
:1044F00003DC4FF6FC70804500DD13E10398A081DA
:1045000014216068FFF7EEFC00B10BE160684068C1
:104510002061288BFEF780F921690880288CFEF73E
:104520007BF9216948800598FEF769F9216948609F
:104530000020216948824FF6C070FEF76DF92169AD
:10454000898900EA010B5046FEF766F94BEA000B39
:104550002069A0F80CB01598A07321698889FFF72D
:10456000E1FA00F03F01CB464FEAE97009EB9070A9
:104570008010401D41EA003080B20190FEF74CF9F6
:1045800021698881DDE90310401A80B20490039903
:10459000059808440590DDE9020108440290002FC7
:1045A0003FF436AF049800283FF732AF686F08B980
:1045B000002605E06E6F00E0366830680028FBD109
:1045C000002E74D031698889FFF7ACFA00F003003F
:1045D00008B1012000E00020B1890844002866D01D
:1045E00031698889FFF79EFA00F00300E8BB0AF002
:1045F000030010B1BAF1010F59D1B089B98908444B
:10460000298F884253DCB07BB97B88424FD1316916
:104610004868FFF781FAB18900EB010B39694868F6
:10462000FFF77AFA834542D109F1140251427868C2
:10463000FFF758FC10B100BF00BF73E078684089F5
:1046400078B9D7F804B07868006878600020CBF8B3
:104650000000A8F101001FFA80F85846FFF70BFC94
:1046600000BF0AF0010060B100E020E000BF00BF21
:104670000120FEF7D1F831698989084331698881C1
:104680000BE000BF00BF79687068FFF720FBB089BE
:10469000B9890844B08138683060BC4202D13446E0
:1046A000B089039039460420FFF71EF903E00EB9E4
:1046B0006F6700E037600AF0020010B90AF00100ED
:1046C00018B10998401C80B209900AF0010028B185
:1046D00095F8220040F0200085F8220055F8681F68
:1046E000099808442860E9880998081AE880A5F81C
:1046F00008802889683D08B100BF00BF84B10398D5
:1047000000280DDD206958B1149800F0020038B976
:104710000820FEF781F82169898908432169888189
:10472000002025E695F8220040F0800085F8220060
:1047300017B1384601F0EDFCB5F8700008B100BFC4
:1047400000BF4FF0FF3013E670B51C48046831E03D
:10475000E06FC0B100BFD4F8840040B1002321460F
:10476000D4F88460E26F6069B047054606E0002334
:1047700021461846E26F01F0AFFB054600BF0DB9B8
:104780000020E06700BF94F8220000F0010080B133
:1047900000BF94F8220040F0020084F82200204676
:1047A00000F060FB00BF94F8220020F0030084F8C2
:1047B0002200E468002CCBD170BD000090000020E6
:1047C0002DE9FC5F06468A46FE4970680860096864
:1047D0000888FFF7A7F9C0F30320716801EB800098
:1047E000F9490860F74909680888FFF79BF9C0F3A1
:1047F00003208000C0F1000B59463046FFF772FBE2
:1048000010B93089142804D23046FFF734FBBDE8D4
:10481000FC9F5146EB4800681030FEF738F970B93C
:104820004FF07040FFF778F9E6490968096900EA36
:10483000010B4FF06040FFF76FF9834503D130461D
:10484000FFF719FBE3E7E04909688889FFF76AF990
:104850004FEA20394FEA890041423046FFF742FBD8
:1048600018B13046FFF707FBD1E7D7490968088838
:10487000FFF758F9D44909680880D349096848887E
:10488000FFF750F9D04909684880CF49096848685E
:10489000FFF742F9CC4909684860CC490860CA4929
:1048A00009688868FFF738F9C74909688860C84906
:1048B0000860C5490968C889FFF734F9C249096821
:1048C000C881C14909688889FFF72CF900F03F00C9
:1048D000C04908703089097801F0030109B101214C
:1048E00000E000210844BC4908800027BB48046858
:1048F0002CE000BF00BF00BF00BF00BF00BF208C86
:10490000B1490968098888421ED1208BAE490968DF
:104910004988884218D1AB4960680968C9688842EB
:1049200012D1A84920680968096988420CD100BFE2
:1049300000BF37B1E068F860A8480068E060A748A9
:10494000046000BF00BF03E02746E468002CD0D11C
:1049500000BF002C4CD1A248046821E000BF00BF7A
:10496000208C994909680988884218D1208B96497A
:1049700009684988884212D1924960680968C96803
:1049800088420CD18F49206809680969884206D19C
:10499000204601F07BFD3046FFF76DFA37E7E4680B
:1049A000002CDBD100278F4805681FE03DB1286847
:1049B00028B18449286809680969884214D1288B7C
:1049C00081490968498888420ED137B1E868F860A2
:1049D00084480068E86083480560284600F09AF93A
:1049E0003046FFF748FA12E72F46ED68002DDDD17B
:1049F000002C75D000207C4908603089888170685F
:104A00008860084646607048006808610020774961
:104A1000086077490870E06FF0B100BFD4F88400F7
:104A200040B100232146D4F884C0E26F6069E047BA
:104A3000804606E0002321461846E26F01F04CFA5A
:104A4000804600BFB8F1000F02D10020E06703E00C
:104A50003046FFF710FADAE666480460204600F0B8
:104A600061FC804608F10500002817D060480078F6
:104A700000F0080098B100BFD4F8900028B16FF0A2
:104A80000501D4F890206069904700BF2146534843
:104A900000F0FCFB21460220FEF726FF71E054489F
:104AA000007800F0100040B121464C4800F0EEFBC9
:104AB00021460220FEF718FF63E04FF00008B4F82B
:104AC0006C00002810DD00BFD4F8800048B1B4F8B5
:104AD0006C202146D4F8803060699847804602E017
:104AE0005DE04FF0000800BF4048006848B3394817
:104AF000007800F0080038B13C480068407B40F086
:104B000001003A490968487300BFD4F8840048B1ED
:104B100000233649D4F884C060690A682146E0471A
:104B2000804607E00023314821460268184601F01C
:104B3000D3F9804600BFB8F1000F02D02B480068BF
:104B4000E0672B48007800F02000A0B100BFD4F847
:104B5000840040B100231A462146D4F884C060691D
:104B6000E047804606E000231A462146184601F039
:104B7000B3F9804600BF00201E490860204600F0BF
:104B800071F900201B49086017484068A0B3164916
:104B90004868FFF770F90020134948603CE00A4973
:104BA00009688889FEF7BEFF00F0040088BB06484C
:104BB00000680088044909684988CDE90010034865
:104BC00000681AE0A8000020A4000020AC0000202B
:104BD000B0000020B4000020B600002090000020AB
:104BE000940000208C000020CC510020BC0000204C
:104BF000B8000020C00000200EE0094A1288811889
:104C0000084803680C33026810320748006801F056
:104C10001BFA3046FFF72FF900BF00BF00BFF6E5D3
:104C2000B6000020A8000020B00000202DE9FC41C3
:104C30000446002214210120FEF77AFF05460DB933
:104C4000BDE8FC8100BF00BFA16D481EFDF7D7FD88
:104C500007463B4600222946204600F059FA064600
:104C600006200021CDE90010E37A221D21462846C6
:104C7000FEF7C0F82846FFF7FEF800BFE0E70000A7
:104C80002DE9F04106464FF07F0800270025104827
:104C9000046813E0607CB0420FDC607C40450CDCB3
:104CA0000C49206B0968081AB84206D30949206BE1
:104CB00009680F1A254694F81180E468002CE9D1A0
:104CC0001DB101212846FFF705FABDE8F08100007B
:104CD000900000208400002070B5002600250B48BD
:104CE00004680BE00A49206B0968081AB04204D333
:104CF0000749206B09680E1A2546E468002CF1D19B
:104D00001DB101212846FFF7E5F970BD9400002090
:104D1000840000207CB505464448007800F010006F
:104D2000B8B1434800680088414909684988CDE91D
:104D3000001040480068404A128881183F480368C4
:104D40000C33026810323E480068401C01F07CF9C8
:104D500069E03648007800F00200002863D0687CE3
:104D6000FFF706FA044614B94FF0FF307CBD334814
:104D70000068103008B9002002E03048006800697F
:104D80002060288B20832D4800680C3008B9002053
:104D900002E02A480068C068606025480068008812
:104DA00020840320207423480068401C6062606AED
:104DB000E0621F480068C089A4F85C00B4F85C0099
:104DC000A4F854001B480068401E206668696061B2
:104DD000E869E061288940F299110840208100BF0C
:104DE00018480068E0601748046000BF204600F0E3
:104DF000D5F9208F211DFFF795FA2087012000218A
:104E000012230A46CDE900102046FFF7A2FA064613
:104E10002EB100212046FFF75DF93046A6E7204677
:104E200000F020F8A2E70020A0E70000B400002076
:104E3000A4000020AC000020B6000020A800002044
:104E4000B000002090000020044800680449096870
:104E5000084402490860084600687047A000002026
:104E6000840000202DE9F047044675480068A04200
:104E700002D10020BDE8F087B4F85C00B4F852100D
:104E8000884202DAB4F85C0001E0B4F852008146CE
:104E9000656F94F8220000F0020070B14DB12969ED
:104EA0004868FEF739FEE16C401AA9890844484574
:104EB00003D9204601F04AF9DCE7A66F26B100E0ED
:104EC000366830680028FBD18EE000BF29698889E8
:104ED000FEF728FE00BFA06F70B194F8220000F02A
:104EE000440048B9606F48B1606F006820B9606FD6
:104EF0008089218F884201DB012000E0002028B951
:104F000094F8220000F0A00000B979E028686067FA
:104F1000207C02280DD01020FDF77EFC29698989AC
:104F200008432969888194F8220020F0030084F85E
:104F300022002146284600F085F829694868FEF7D6
:104F4000EBFD074629698889FEF7ECFD00F00300B8
:104F500008B1012000E00020A989084407EB0008FF
:104F6000A06DB0EB080001D5C4F858802969888984
:104F7000FEF7D8FD00F0030008B1012000E000209A
:104F8000A989084400282BDD00202860A06F10B9F3
:104F9000A5672E4627E029694868FEF7BDFD07464C
:104FA00031694868FEF7B8FD381A16D504F178075C
:104FB00000E03F68386860B1396809694868FEF701
:104FC000ABFD824629694868FEF7A6FDBAEB0000F2
:104FD000EFD4386828603D6005E03560366802E04F
:104FE000284601F086F8656F55B129694868FEF7D3
:104FF00093FDE16C401AA989084448457FF665AFE6
:1050000000BFA5B194F89C0088B929694868FEF7EB
:1050100083FDE16C401AA9890844B4F85C10884209
:1050200005D90020C4F89800012084F89C0094F869
:10503000220020F0800084F8220000201AE70000FF
:10504000C00000202DE9FC4105460C46606AFDF7D2
:10505000D6FB29698860608DFDF7DEFB2969C88170
:10506000618D606A0844E062286900F11408A87B39
:1050700000F0010030B12448FDF7C1FBC8F8000082
:1050800008F104080CB1206860B9201DFEF78CF906
:1050900006460EB9BDE8FC81301D08B9002000E0CD
:1050A00070682060B4F93600401C08B90020E08622
:1050B000E06B38B915480068E06329694868FEF775
:1050C0002BFD2064288A69688988401A87B268683D
:1050D0004089C01B6968488168680089C01B69688D
:1050E00008816968286948600020296908820621CA
:1050F000A07ACDE90001E37A221D21466868FDF718
:1051000079FE00BFC6E70000B40504028400002059
:105110002DE9F04705460F46164698467C68288BD1
:10512000FDF77AFB2080288CFDF776FB6080C4F8C1
:105130000480686AFDF763FBA0604FF6C070FDF75E
:105140006BFBA18900EA01091020FDF765FB49EA24
:105150000009A4F80C90688DFDF75EFBE08100204B
:105160006082A089FEF7DEFC00F03F01B146F01737
:1051700006EB90708010401D41EA00301FFA80FA63
:105180005046FDF749FBA08100202082698D686AA6
:105190000844E8622046BDE8F08700002DE9F047AA
:1051A00080462B48006800F1140529490968888960
:1051B000FEF7B8FC0521B1EB203F46DA2449096827
:1051C0008889FEF7AFFC0521C1EB20304FF6FF7157
:1051D00001EA8006002436E015F80490B9F1000FCA
:1051E00006D0B9F1010F05D0B9F1020F21D104E0C9
:1051F000BDE8F087601C84B224E0601C285C0428B1
:1052000002D1201DB04200DDF2E7E01C295CA01CA9
:10521000285C41EA002740F2B450874200DC17B90D
:1052200040F2B45000E03846A8F83800201D84B29F
:1052300008E0601C285C00B9DAE7601C285C2044A8
:1052400084B200BF00BFB442C6DB00BFD0E700009D
:10525000A400002010B50446207CA8B1207C0A28B8
:1052600012D0207C01280FD0E06F20B1E06FFEF754
:1052700002FE0020E067606F00F04BFFA06F00F0BF
:1052800048FF00206067A06710BD000070B50546AC
:105290000C4600BF2868A04203D12868C068286077
:1052A00017E01F49286808600EE01D480068C068C4
:1052B000A04204D11A49E0680968C86008E01848AB
:1052C0000068C06816490860154800680028ECD1DD
:1052D00000BF0020E06000BF2046FFF7BBFF207C3E
:1052E0000A2810D0207C01280DD094F8220000F06C
:1052F000010040B194F8220040F0020084F822003E
:105300002046FFF7AFFD207C012803D000BF00BF7F
:1053100000BF00BF0020207400BF00BF70BD0000B0
:10532000980000202DE9FC4104460027B846FC48BF
:10533000007800F0040060B3207C022806D1F9490F
:10534000A06D096888420FD101270DE0F649606A17
:105350000968081A08D4218D606A0844F24909686E
:10536000081A002800DC01278FB100BF00BFEF48FA
:10537000007840F00800ED49087094F8220020F011
:10538000010084F822006FF00500BDE8FC810020D8
:10539000FBE7E348007800F0020090B1207C02288F
:1053A0000FD0207C03280CD000BF94F8220040F0DE
:1053B000020084F822002046FFF754FD00BF0020C1
:1053C000E3E7DB4800682063002084F89D00204666
:1053D000FFF7E4FE207C801E08286FD2DFE800F093
:1053E000049AF4F3F2F1F0EFCD48007800F01000E9
:1053F000002873D0CA48007800F0020000286DD061
:10540000A16F09694868FEF787FB401CC549096818
:10541000884263D1B4F86E00401CA4F86E00C24804
:105420000068401C6062606AE062BE480068E06438
:10543000C0480068C089A4F85C00BB480068401EF2
:10544000206604202074208F211DFEF76BFF20872B
:10545000208F00EB80004FF6FF7101EA4000A4F8B6
:105460005400B4F85200012802D1208F400000E01F
:10547000208FA4F8520000BF00BFB4F87000401E97
:10548000A4F87000A56F2868A067A06F18B94FF046
:10549000FF30E08603E00020E08684F84A002846DA
:1054A00000F027FE00BFD4F8880040B1002221465A
:1054B000D4F8883060699847804602E0E4E14FF014
:1054C000000800BF00BF94F8220040F0020084F8FA
:1054D00022002046FFF7C6FC1BE0FFE7904800785B
:1054E00000F01000A8B1934800680088914909684D
:1054F0004988CDE900108C4800688F4A12888118CD
:105500008E4803680C33026810328648006800F049
:105510009BFDBAE18248007800F0100000286BD0B3
:10552000E06C401C7F490968081A4ED47D49A06D83
:105530000968081A002848DC0420207400BF00BF56
:1055400000BFE06930B100222146E36960699847F5
:10555000804601E04FF0000800BFB8F1000F06D010
:1055600001212046FEF7B6FD6FF004000DE7B4F808
:105570005260204600F098F9B4F86C0020B1B4F8FD
:105580006C00401EA4F86C00012E02D1208F400058
:1055900000E0208FA4F852006448007800F020005A
:1055A00060B100BF94F8220040F0020084F82200AD
:1055B0002046FFF757FC00BF072020742AE04FE188
:1055C0000DE128E0C2E03DE026E05A48006800888E
:1055D000584909684988CDE9001053480068564A7F
:1055E00012888118554803680C33026810324D4800
:1055F000006800F029FD0DE04948007800F0020045
:1056000040B1606A401E48490968884202D120467C
:1056100000F09CFC39E100BF204600F045F943480A
:10562000007800F0200060B100BF94F8220040F044
:10563000020084F822002046FFF714FC00BF072078
:10564000207422E1204600F02FF93848007800F05D
:10565000200088B33248007800F0100068B3314968
:10566000A06D096888423FD100BF94F8220040F045
:10567000020084F822002046FFF7F4FB00BF20461A
:10568000FFF7E8FD00BF2E480068A04205D12C4876
:105690000068C0682A4908601AE02948006829495A
:1056A000086010E027480068C068A04206D125497C
:1056B000E0680968C8600AE024E015E02148006855
:1056C000C068204908601F4800680028EAD100BF70
:1056D0000020E06000BF0A20207400BF1A48006864
:1056E000E0601948046019E000BF94F8220040F01F
:1056F000020084F822002046FFF7B4FB00BF082018
:1057000020740BE00648007800F0100030B1054925
:10571000A06D0968884201D106202074B5E0000020
:10572000B4000020B0000020AC000020B800002031
:1057300084000020A4000020B6000020A800002063
:10574000900000209800002094000020204600F0E7
:10575000ABF84F48007800F02000E8B300BF94F8A1
:10576000220040F0020084F822002046FFF77AFB76
:1057700000BF2046FFF76EFD00BF46480068A0420C
:1057800005D144480068C0684249086018E04148B3
:105790000068414908600EE03F480068C068A042C8
:1057A00004D13D49E0680968C86008E03A480068EB
:1057B000C06839490860384800680028ECD100BF4B
:1057C0000020E06000BF0A20207400BF334800685A
:1057D000E0603248046000E000E000BF55E0204691
:1057E00000F062F82E48007800F01000B8B32D49A0
:1057F000A06D0968884232D12046FFF72BFD00BF1B
:1058000024480068A04205D122480068C0682149A8
:10581000086018E01F4800681F4908600EE01E4835
:105820000068C068A04204D11B49E0680968C860EC
:1058300008E019480068C068174908601648006801
:105840000028ECD100BF0020E06000BF0A202074D7
:1058500000BF12480068E0601048046000BF14E018
:10586000204600F021F80E48007800F0100050B1FA
:105870000C49A06D0968884205D10548007840F0C0
:1058800010000349087000E000BF00BF00207CE565
:10589000B800002090000020980000209400002014
:1058A000B4000020B00000202DE9FC5F0446002079
:1058B0000190F948007800F01000002872D0B4F888
:1058C0005C00616E00EB0109F449206E0968401A22
:1058D00015D4F249206E0968884204D1F049606EFF
:1058E0000968401A0BD4EE49606E096888421CD1E1
:1058F000EC480068C089B4F85C10884215DDE948BE
:105900000068C089A4F85C00E44800682066E448A8
:1059100000686066B4F85C00002806DD94F89C001E
:10592000002802DD002084F89C00DD49E06C096855
:10593000081A002844DC0020A4F86C00DA4800882B
:1059400078BBB4F85C10606E0844484532D1B4F9B5
:10595000360000282EDBD249E06C0968884229D144
:105960000120019094F85000401C94F85010884297
:1059700004DD94F85000401C84F8500094F8500066
:10598000032810DDB4F85200218F084480B2B4F827
:10599000521088420EDDB4F85200218F0844A4F85A
:1059A000520007E03AE194F85000032802D1204663
:1059B00000F0F4FA0198002801D184F85000AFE01B
:1059C000E06C401CB6490968081A7DD4B449A06D42
:1059D0000968081A002877DC94F8220000F0040017
:1059E00038B114F8220F20F004002070608E208659
:1059F000223C00203434A075608AB4F9101000EB0A
:105A0000E10000B2A082208BA5490988081A2087EE
:105A1000608F218F0844608700202077A0480068AD
:105A2000A06114F8240C343C042824DBB4F85200A0
:105A3000B4F8541088420FDAB4F85200218F0844A9
:105A400080B2B4F85210884215DDB4F85200218FAC
:105A50000844A4F852000EE034F8381F4943628B22
:105A600091FBF2F1114488B2618B383C814201DA3A
:105A7000A4F8520000BF26E0A56FA06F0068A067E1
:105A800000BF6868FEF74AF900BFB4F86C0058B16F
:105A900029698889FEF746F800F0010020B1B4F8C2
:105AA0006C00401EA4F86C006868FEF737F934F803
:105AB000701F081A2080284600F01BFB34F870097C
:105AC00008B100BF00BF00E027E0A06FC8B1A16F20
:105AD00009694868FEF720F88346A16F096988893B
